:020000022000DC
:1060000000000420097A0900497A09007D89090005
:106010004D7A09004F7A0900517A0900000000000A
:10602000000000000000000000000000AD78090042
:10603000557A090000000000CD780900597A09005E
:10604000457C09005B7A090051560900A542090008
:106050005B7A09005B7A0900655809005B7A0900E0
:106060005B7A09005B7A09005B7A09005B7A0900B8
:106070005B7A09005B7A09005B7A09005B7A0900A8
:106080005B7A09003D7609005B7A09005B7A0900BA
:106090005B7A09005B7A09000D4909005B7A090007
:1060A0005B7A09005B7A09005B7A09005B7A090078
:1060B0005B7A09005B7A0900000000000000000024
:1060C0005B7A09005B7A09005B7A0900E9800900C4
:1060D0005B7A09005B7A09005B7A0900693E090076
:1060E0005D5609005B7A09005B7A09000000000038
:1060F000000000005B7A090000000000198109001F
:10610000000000000000000000000000000000008F
:10611000000000000000000000000000000000007F
:10612000000000000000000000000000000000006F
:10613000000000000000000000000000000000005F
:10614000000000000000000000000000000000004F
:10615000000000000000000000000000000000003F
:10616000000000000000000000000000000000002F
:10617000000000000000000000000000000000001F
:10618000000000000000000000000000000000000F
:1061900000000000000000000000000000000000FF
:1061A00000000000000000000000000000000000EF
:1061B00000000000000000000000000000000000DF
:1061C00000000000000000000000000000000000CF
:1061D00000000000000000000000000000000000BF
:1061E00000000000000000000000000000000000AF
:1061F000000000000000000000000000000000009F
:1062000010B5054C237833B9044B13B10448AFF3F0
:1062100000800123237010BD1069002000000000E1
:10622000643F0D0008B5034B1BB103490348AFF3AE
:10623000008008BD0000000014690020643F0D00CC
:10624000A3F5803A704700BF174B002B08BF134BD4
:106250009D46FFF7F5FF00218B460F461348144A71
:10626000121A87F04BF80E4B002B00D098470D4BBD
:10627000002B00D098470020002104000D000D489D
:10628000002802D00C48AFF3008086F003FF200006
:10629000290071F0FDFB86F015FC00BF000008002E
:1062A0000000000000000000000004201069002031
:1062B0007C060220000000000000000070477047CC
:1062C000817270477047402070472020704710202F
:1062D000704770476FF0180070476FF018007047F4
:1062E0006FF01800704770477047002070476FF0DC
:1062F0001800704700207047BBEE090A704784B051
:1063000004A800E90E006FF0180004B070476FF0A9
:10631000180070476FF0180070477047836841603D
:106320001944C16070470020704700207047183042
:10633000704701207047704720307047084A8B89AA
:1063400092F8300108B1422B08D0012B05D00A3B4E
:10635000012B8CBF0020012070471846704700BFFA
:10636000C87A00204069431E5842584170470020B7
:10637000704790F82C00831E58425841704790F89F
:106380002600831E584258417047002070474069DC
:10639000431E584258417047007B704700207047A9
:1063A000007B70477047024B93F85801704700BF5D
:1063B000C87A0020014B93F849017047C87A002041
:1063C0000020704701207047002070470020704770
:1063D000014B93F862017047C87A0020B0F876004C
:1063E0008A89131A584258417047704770474B6A60
:1063F000032B01BF034B1B68B3F85030838300208D
:10640000704700BFC47B0120F1E7F0E71830704708
:10641000002070470068096803689B681847C0F847
:106420008011704780ED5F0A704700207047006858
:10643000096803689B6818470068096803689B68D7
:1064400018470068096803689B681847C08A8A89EA
:10645000131A584258417047704700207047002077
:106460007047022A06D0032A02D0012A00D1016017
:10647000002070470B680360FAE7F2E7012A08BFC3
:10648000016000207047F9E7F8E7F7E7F6E7F5E77E
:10649000F4E7F3E7F2E7F1E7F0E7EFE7EEE7EDE740
:1064A000ECE7EBE7EAE7E9E7E8E7E7E7E6E7E5E770
:1064B000E4E7E3E7E2E7E1E7E0E7DFE7DEE7DDE7A0
:1064C000DCE7DBE7DAE7D9E7D8E7D7E7D6E7D5E7D0
:1064D000D4E7D3E7D2E7D1E7D0E7CFE7CEE7CDE700
:1064E000CCE7CBE7CAE7C9E7022A06D0032A02D0E5
:1064F000012A00D10160002070470B680360FAE7B1
:10650000F2E7F1E7F0E7EFE7EEE7EDE7ECE77047FA
:106510007047704701204DF00CBCFBE710B50C2113
:10652000044671F0FDFA204610BD10B53421044632
:1065300071F0F6FA204610BD33F00EBD036D1B68F6
:106540005A6933F018BD024B024819886EF09DB9A4
:10655000F27001207CAA0120024B034819886EF0DA
:1065600094B900BFF27001207CAA012070B50546E5
:106570000C464CB1E1682846FFF7F8FFA6682046B4
:106580006FF008FD3446F4E770BD70B505460C4663
:106590004CB1E1682846FFF7F8FFA66820466FF087
:1065A000F9FC3446F4E770BD70B505460C464CB1B5
:1065B000E1682846FFF7F8FFA66820466FF0EAFC7E
:1065C0003446F4E770BD70B505460C464CB1E16841
:1065D0002846FFF7F8FFA66820466FF0DBFC34463C
:1065E000F4E770BD10B50446006808B16FF0D2FC46
:1065F000204610BD11B108306FF000BB704713B5D5
:106600000A4C206840304CF0B7FD206800210AF0A9
:10661000DDFC074B01221A7000230193054B01A9F1
:1066200018686FF0D9FE02B010BD00BFF47B0120E6
:10663000847B01206C750020E1E7E0E710B504469B
:106640006CF0A0FC204610BD10B5046844B1201DBC
:106650006CF098FC20461421BDE8104071F060BA3F
:1066600010BD07B500680B680168019301EB0311C9
:10667000C3680BB97EF0B5FF036901AA04309847DF
:1066800003B05DF804FBECE707B500680B68016830
:10669000019301EB0311C3680BB97EF0A2FF0369FC
:1066A00001AA0430984703B05DF804FB07B5006801
:1066B0000B68026801930C2101FB0321C3680BB92D
:1066C0007EF08FFF036901AA0430984703B05DF89C
:1066D00004FBEBE707B500680B68026801930C2127
:1066E00001FB0321C3680BB97EF07BFF036901AA9C
:1066F0000430984703B05DF804FBEBE7EAE7E9E70D
:10670000034607B59A680191013A08469A607EF0FF
:106710008FFD019803B05DF804EB6FF03BBC38B51A
:1067200004680546A54207D0A068036800219B685D
:10673000984710B92468F5E7002038BDF0B501F19D
:10674000200C00254FF0000E51F8043B05F0010528
:106750005E1B52F8043B6EEB4E07F41A67F100051E
:10676000614540F8044BEFD105F00100F0BD08B5DC
:10677000D0E900031B1A6FF00040834202D10748A2
:106780007EF00AFF012B1A4638BF01229B1804D263
:10679000002BACBF18466FF0004008BD352C0B0035
:1067A00008B5D0E900031B1A9810094B4343094868
:1067B000834202D108487EF0EFFE012B1A4638BF13
:1067C00001229A1802D2904228BF104608BD00BF8D
:1067D000ABAAAAAAAAAAAA0A352C0B00034610B48F
:1067E0001B681C68084611462CB1A4469B685DF8DE
:1067F000044B0122604702205DF8044B704710B53E
:1068000048B1046954B184680123A047002818BF27
:106810006FF0020010BD6FF00A00FBE76FF004009C
:10682000F8E720B1024B800143F00103184770479D
:1068300050300B00F5E7F4E7A4DF7047A3DF7047A3
:10684000B2DF7047B1DF7047B0DF704711DF7047CC
:106850003DDF70473CDF704763DF704762DF7047A2
:10686000A8DF704786DF704785DF704781DF70479C
:1068700046DF70478ADF70477ADF7047A0DF7047D6
:10688000007D7047407C7047007D7047B5DF7047E2
:1068900090DF70478FDF7047AEDF7047ADDF704726
:1068A000ACDF7047ABDF7047AADF704775DF70471A
:1068B00074DF704700231A4619466FF0C5BC4FF0CD
:1068C000FF316FF02DBE30B5294C05469DB0206DCF
:1068D000FFF7F5FF94F84C30019525467BB125482C
:1068E00001AB02AA06A907F077FC044678B1286D2F
:1068F000FFF7E0FFB4FA84F040091DB030BD04F1A9
:106900000C0007F0E4F804460028E8D0EFE79DF813
:106910000C30222B16D0174802AA06A907F01EFB3E
:1069200004460028E3D19DF80C30222BDFD111481A
:1069300006AA12A906F0F8FF041ED8DB0BD10E48F8
:106940004DF084FA0B4804AA11A906F084FB044612
:106950000028E0D0CBE71A9B0F931B9B10930023DA
:1069600004481A4606A907F07DF90446BFE700BFB0
:10697000E0710020EC7100204F2C0B0012DF7047FB
:1069800038B5437A04460D460BB942F002FE204664
:106990000322802142F096FDE27A20462A4381219B
:1069A00042F090FD25732046BDE8384042F0A1BD7D
:1069B00038B5437A04460D460BB942F0EAFD20464D
:1069C0000322802142F07EFD227B20462A43812142
:1069D00042F078FDE5722046BDE8384042F089BDBE
:1069E00038B515461A4650B1C368AB420AD344685D
:1069F0002B46A047002818BF6FF0020038BD6FF08B
:106A00000A00FBE76FF00400F8E710B404460846FC
:106A100011461A4623685C6824B1A4469B685DF859
:106A2000044B604702205DF8044B704713B50446E1
:106A300000213EF026FB012301AA06212046FFF794
:106A4000E4FF50B99DF8043001AA60F34513062114
:106A500020468DF80430FFF7C1FE02B010BD37B5F7
:106A600004460D4600213EF00CFB012301AA06213D
:106A70002046FFF7CAFF50B99DF8043001AA65F31C
:106A80008613062120468DF80430FFF7A7FE03B0D9
:106A900030BD38B5437C04460D4673B120463CF00A
:106AA000A9FC227A657220462A43A1213CF046FCCB
:106AB0002046BDE838403CF052BC03493CF062FC43
:106AC0000028EBD138BD00BF408A012038B5437C97
:106AD00004460D4673B120463CF08CFC627A257268
:106AE00020462A43A1213CF029FC2046BDE838403D
:106AF0003CF035BC02493CF045FC0028EBD138BDE8
:106B0000408A01201FB504688DF80C10ACB1032336
:106B10000022CDE9003203AB01221946204609F0DC
:106B20009AF99DF80D309DF80C001B0243EA0043D2
:106B30009DF80E00184304B010BD0323009303AB6F
:106B400001221946406809F08FF8EAE71FB504688A
:106B50008DF80C108CB102230022CDE9003203AB7A
:106B600001221946204609F076F99DF80C009DF89F
:106B70000D3043EA002004B010BD0223009303ABA4
:106B800001221946406809F06FF8EEE708B5FFF7F3
:106B9000DDFF40BA80B208BD1FB504688DF80C1047
:106BA00064B100230122CDE9002303AB194620463E
:106BB00009F051F99DF80C0004B010BD01220092BB
:106BC00003AB1946406809F04FF8F3E71FB50468B6
:106BD0008DF80D2064B10023CDE900338DF80C1041
:106BE0000123022203A9204609F005F904B010BDD3
:106BF00001F07F0100948DF80C102346022203A9B6
:106C0000406809F051F8F1E70078C0F3C20300F0E2
:106C100007029B0043EA421343EA901070471FB5F6
:106C200044688DF80C10ACB103230022CDE900328A
:106C300003AB01221946204609F00DF99DF80D30ED
:106C40009DF80C001B0243EA00439DF80E00184318
:106C500004B010BD0323009303AB012219468068E2
:106C600009F002F8EAE71FB544688DF80C109CB1F2
:106C700002230022CDE9003203AB0122194620464F
:106C800009F0E9F89DF80C309DF80D0040EA03206A
:106C900040BA80B204B010BD0223009303AB0122BE
:106CA0001946806808F0E0FFECE71FB544688DF8EE
:106CB0000C1064B100230122CDE9002303AB194677
:106CC000204609F0C8F89DF80C0004B010BD012260
:106CD000009203AB1946806808F0C6FFF3E71FB5C2
:106CE00044688DF80D2064B10023CDE900338DF8A0
:106CF0000C100123022203A9204609F07CF804B0FD
:106D000010BD01F07F0100948DF80C102346022283
:106D100003A9806808F0C8FFF1E70378642223F034
:106D2000020303704068B0FBF2F0B0FBF2F302FB29
:106D30001300C0B27047037C0BB9037070478368BF
:106D400043600378C16043F00303037000230374BE
:106D50007047037819B143F004030370704703F0E0
:106D6000FB03FAE74BDF704733DF704732DF7047D2
:106D7000BFF34F8F0549064BCA6802F4E062134324
:106D8000CB60BFF34F8F00BFFDE700BF00ED00E019
:106D90000400FA0508B16FF0FDB8704710B504465D
:106DA00016F0E8FD2388838110BD0B4B10B51C68DD
:106DB0000DF058FE236801461B682046984704469C
:106DC00040B11AF08DFC28B194F82D3013B104F1C4
:106DD0002D0010BD0148FCE7D4880020532C0B0087
:106DE000094B10B51C6864B160680DF025FE38B120
:106DF00094F8600194F86A3198422CBF0020012079
:106E000010BD2046FCE700BF20250120064B187965
:106E100000F0FB03022B04D0A0F10B0358425841B1
:106E200070470120704700BFA085002038B5044698
:106E300008200D4670F06EFE2B68436023680360E7
:106E4000206038BD044B93F8693013B1034BD86808
:106E500070470068704700BFA08500204C88002064
:106E6000044B93F8693013B1034B586870470068BE
:106E7000704700BFA08500204C8800202DE9F0411C
:106E800006468846154617460446444509D021461D
:106E900038467EF08FFE20467EF0A2FD183418376B
:106EA000F3E7A01BC4080448444324F060441820BE
:106EB00000FB0450BDE8F081ABAAAA0A08B16FF04C
:106EC00069B87047836810B504462BB103220146A8
:106ED00098470023C4E90233204610BD10B504468C
:106EE00000687EF011FA2060204610BD8B6873B5F3
:106EF000164604460D1D01225BB130681A699042A6
:106F000034BF9868D8681D4634BF0122002203466A
:106F1000F2E7019552B1CA68AA4204D1C4E900352A
:106F2000204602B070BD01A8FFF7D8FF019A336870
:106F3000116999424FF00003F0D3C4E90023EFE751
:106F400070B505460C464CB1E1682846FFF7F8FFDE
:106F5000A66820466FF01EF83446F4E770BD10B501
:106F6000044600687EF0AAF92060204610BD38B5BE
:106F700004460068844204D005686FF00BF8284688
:106F8000F8E738BD70B5046805460E46AC4207D038
:106F9000A068036831469B68984710B92468F5E7F4
:106FA000002070BD70B5046805460E46AC4207D09F
:106FB000A068036831469B68984710B92468F5E7D4
:106FC000002070BD08B5054B984201D97EF0DEFA6D
:106FD0000C235843BDE8084070F09CBDAAAAAA0A39
:106FE00008B16EF0D7BF70478B6873B5164604467C
:106FF0000D1D01225BB130881A8A904234BF986817
:10700000D8681D4634BF012200220346F2E70195ED
:1070100052B1CA68AA4204D1C4E90035204602B080
:1070200070BD01A8FFF75AFF019A3388118A99426F
:107030004FF00003F0D3C4E90023EFE78B6873B58A
:10704000164604460D1D01225BB130881A8A904213
:1070500034BF9868D8681D4634BF01220022034619
:10706000F2E7019552B1CA68AA4204D1C4E90035D9
:10707000204602B070BD01A8FFF730FF019A3388A7
:10708000118A99424FF00003F0D3C4E90023EFE7DF
:1070900070B505460C464CB1E1682846FFF7F8FF8D
:1070A000A66820466EF076FF3446F4E770BD0368AC
:1070B000013B13F8012FFF2A03D08A42F9D10120A6
:1070C00070470020704710B50138029C0E287DD80B
:1070D000DFE800F0587C36281A14520844676A6DBD
:1070E00073777A00DFED3F7A9FED3F7A002908BF82
:1070F000F0EE477AC2ED007A05225BE0DFED3B7AE5
:107100009FED3B7A0029F2E7DFED387A9FED387A80
:10711000002908BFF0EE477AC2ED007A05222270FE
:1071200008223CE0DFED317A9FED317A002908BF7B
:10713000F0EE477AC2ED007A0522227009222EE095
:10714000DFED2A7A9FED2A7A002908BFF0EE477A10
:10715000C2ED007A052222700A2220E0DFED217ABA
:107160009FED217A002908BFF0EE477AC2ED007A40
:10717000082222700B2212E0DFED1E7A9FED1E7AAC
:107180000029F0E7DFED1B7A9FED1B7A002908BF8D
:10719000F0EE477AC2ED007A082222700C221A70B3
:1071A00010BD16491160C7E714491160D2E71449B0
:1071B0001160062222700722F1E7114911600622B0
:1071C000ADE71049116097E70E49F7E7DFED077A61
:1071D0009FED077A002908BFF0EE477AC2ED007AEA
:1071E0000522C6E70020CB440000FA4300204B44B0
:1071F00000007A430020CB430000FA420000FA422C
:1072000000007A429A9979411FB500230393002325
:107210008DF80B308DF80A300DF10A03009303AAA4
:107220000DF10B03FFF74FFF9DED030A05B05DF86D
:1072300004FB38B504460C200D4670F06BFC2B683F
:10724000836021467DF0EDFFA3680133A36038BD64
:1072500038B504460C200D4670F05CFC2B6883604A
:1072600021467DF0DEFFA3680133A36038BDF8B589
:107270000D460168044606468C420FD08A682B688A
:107280000F689A4208D101F108039D4203D02046BD
:10729000FFF736FA00E00E463946EDE7B44205D076
:1072A00031462046BDE8F840FFF72ABAF8BDF8B5E8
:1072B0000D460168044606468C420FD08A682B684A
:1072C0000F689A4208D101F108039D4203D020467D
:1072D000FFF716FA00E00E463946EDE7B44205D056
:1072E00031462046BDE8F840FFF70ABAF8BD2DE95F
:1072F000F047D0E90487436AD0E902A904463D1D5E
:107300001E1DAE4204D955F8040B6EF043FEF8E79B
:10731000C4E906A9C4E90887BDE8F0872DE9F0476C
:10732000D0E90487436AD0E902A904463D1D1E1D29
:10733000AE4204D955F8040B6EF02CFEF8E7C4E910
:1073400006A9C4E90887BDE8F087036870B504465C
:1073500063B1436A45691E1DAE4204D955F8040B5A
:107360006EF018FEF8E720686EF014FE204670BD3F
:10737000036870B5044663B1436A45691E1DAE4299
:1073800004D955F8040B6EF005FEF8E720686EF09E
:1073900001FE204670BD50F8183B834202D01846CB
:1073A0006EF0F8BD704710B50446FFF7E0FD00230E
:1073B000C4E90044A36010BDB0F1005F08B501D37B
:1073C0007EF0E4F8BDE80840800070F0A3BB08B18F
:1073D0006EF0E0BD7047026962B1836850F8231017
:1073E000013303F0010348BF5B42013A836002614D
:1073F000084670471146FBE7826A10B582B1036AFE
:1074000050F823400133594201F0070103F007030C
:1074100002F1FF3258BF4B4203628262204610BD28
:107420001446FBE7026962B1836850F82310013308
:1074300003F0010348BF5B42013A836002610846E2
:1074400070471146FBE7D0F8882010B59AB1D0F804
:10745000803050F823400133594201F01F0103F0FE
:107460001F0302F1FF3258BF4B42C0F88030C0F812
:107470008820204610BD1446FBE70146014816F05F
:10748000B7BA00BF10B400202DE9F347CB68DFF88E
:10749000649001930E1D07460C4635464FF0FF38A9
:1074A000DDF804A0564510D0DAF81010D9F80430F1
:1074B000994206D038460DF0E6F8804584BF55461F
:1074C000804601A8FFF74BFDEAE7AE4210D001A8C5
:1074D0000195FFF744FD314628467DF073FF6EF0BD
:1074E00059FD6369013B6361012002B0BDE8F0878B
:1074F0000020FAE7907E00202DE9F347CB68DFF803
:10750000649001930E1D07460C4635464FF0FF3838
:10751000DDF804A0564510D0DAF81010D9F8043080
:10752000994206D038460DF0AEF8804584BF5546E6
:10753000804601A8FFF713FDEAE7AE4210D001A88C
:107540000195FFF70CFD314628467DF03BFF6EF0BC
:1075500021FD6369013B6361012002B0BDE8F08752
:107560000020FAE7907E00202DE9F347CB68DFF892
:10757000649001930E1D07460C4635464FF0FF38C8
:10758000DDF804A0564510D0DAF81010D9F8043010
:10759000994206D038460DF076F8804584BF5546AE
:1075A000804601A8FFF7DBFCEAE7AE4210D001A855
:1075B0000195FFF7D4FC314628467DF003FF6EF0BD
:1075C000E9FC6369013B6361012002B0BDE8F0871B
:1075D0000020FAE7907E00202DE9F347CB68DFF822
:1075E000649001930E1D07460C4635464FF0FF3858
:1075F000DDF804A0564510D0DAF81010D9F80430A0
:10760000994206D038460DF03EF8804584BF554675
:10761000804601A8FFF7A3FCEAE7AE4210D001A81C
:107620000195FFF79CFC314628467DF0CBFE6EF0BD
:10763000B1FC6369013B6361012002B0BDE8F087E2
:107640000020FAE7907E00208B6873B5164604464A
:107650000D1D01225BB130681A69904234BF9868F1
:10766000D8681D4634BF012200220346F2E7019587
:1076700052B1CA68AA4204D1C4E90035204602B01A
:1076800070BD01A8FFF72AFC019A3368116999427D
:107690004FF00003F0D3C4E90023EFE78B6873B524
:1076A000164604460D1D01225BB130681A699042EE
:1076B00034BF9868D8681D4634BF012200220346B3
:1076C000F2E7019552B1CA68AA4204D1C4E9003573
:1076D000204602B070BD01A8FFF700FC019A336894
:1076E000116999424FF00003F0D3C4E90023EFE79A
:1076F0008B6873B5164604460D1D01225BB13068D8
:107700001A69904234BF9868D8681D4634BF012278
:1077100000220346F2E7019552B1CA68AA4204D199
:10772000C4E90035204602B070BD01A8FFF7D6FBC2
:10773000019A3368116999424FF00003F0D3C4E90C
:107740000023EFE78B6873B5164604460D1D012232
:107750005BB130681A69904234BF9868D8681D469A
:1077600034BF012200220346F2E7019552B1CA68F4
:10777000AA4204D1C4E90035204602B070BD01A878
:10778000FFF7ACFB019A3368116999424FF000038F
:10779000F0D3C4E90023EFE730B5031D8268184633
:1077A0003AB115690C68A5422ABF1046D2689268A2
:1077B000F6E7834204D009680269914238BF18464F
:1077C00030BD30B5031D826818463AB115690C68A2
:1077D000A5422ABF1046D2689268F6E7834204D0D9
:1077E00009680269914238BF184630BD30B5031DA3
:1077F000826818463AB115690C68A5422ABF10463E
:10780000D2689268F6E7834204D00968026991421F
:1078100038BF184630BD30B5031D826818463AB1EE
:1078200015690C68A5422ABF1046D2689268F6E72F
:10783000834204D009680269914238BF184630BDBE
:1078400037B54B690192272B05460C460AD901A989
:107850002046FFF7E0FF231D834203D1214628463F
:10786000FFF7BAFE03B030BD10B581680446FEF7DD
:107870007DFE0023221DC4E90322A360636110BDC5
:1078800010B581680446FEF780FE0023221DC4E97E
:107890000322A360636110BD10B581680446FEF742
:1078A00083FE0023221DC4E90322A360636110BD8F
:1078B00010B581680446FEF786FE0023221DC4E948
:1078C0000322A360636110BD2DE9F84300F10409B0
:1078D000846805464E46ECB123690868834204D2A9
:1078E000E368344626461C46F5E7A368FAD8E26802
:1078F00043B1196988428ABFD968996823461C46F2
:107900000B46F5E73AB11369984236BF1646D2687E
:107910009268F7E73446EB68D5F81480A34209D1A2
:10792000B14507D12846FFF7C3FF6869A8EB0000FF
:10793000BDE8F883A642F8D020467DF0D2FC494647
:10794000074620467DF03EFD6EF024FB6B69013B4F
:107950006B613C46EEE710B50446002024F02AFC9B
:10796000A368C01A20EAE07010BD08B16EF012BB27
:107970007047B0F1005F13B501D37DF007FE8200C0
:107980001046019270F0C6F8019A0021044685F075
:10799000B5FC204602B010BD42680B4604318A4255
:1079A00010B5044604D01846521A85F08DFC0346E3
:1079B0006268043A6260184610BD814210B51346F1
:1079C000A1EB000405D001462246184685F07CFC58
:1079D0000346181910BD38B50346D3E90035ED1A32
:1079E0006FF06043AC10A3EBA5058D42104601D2A9
:1079F0007DF0D2FDA14238BF2146601803D29842E3
:107A000028BF184638BD1846FCE708B16EF0C2BA68
:107A1000704710B504460068FFF7F7FF204610BD19
:107A200008281BD00A281CD010281DD015281ED0CD
:107A30001F281FD02A2820D03E2821D0C82822D095
:107A4000B0F5C87F22D0B0F5487F22D0B0F5C86F1E
:107A500022D007EE900AB8EE670A70479FED100A31
:107A600070479FED100A70479FED0F0A70479FED1A
:107A70000F0A70479FED0E0A70479FED0E0A704780
:107A80009FED0D0A70479FED0D0A70479FED0C0AA0
:107A900070479FED0C0A70479FED0B0A704700BFBF
:107AA0009A99F940666626419A9979416666A64197
:107AB0000000FA41CDCC264200007A4200204B4320
:107AC0000020CB4300204B440020CB4410B103687E
:107AD0005B681847704710B103685B6818477047C8
:107AE00010B103681B691847704710B103685B68E1
:107AF0001847704770B505460C464CB1E1682846FA
:107B0000FFF7F8FFA66820466EF044FA3446F4E723
:107B100070BD70B5046805460E46AC4207D0A0683B
:107B2000036831469B68984710B92468F5E7002040
:107B300070BD2DE9F84FD0E90087A7EB0804A3102A
:107B4000234C5C43234B9C4206468946934602D114
:107B500021487DF021FD012C224638BF0122A418C6
:107B6000A1EB080531D244B19C4228BF1C460C2031
:107B700060436FF0CFFF824600E0A2469BE807001B
:107B80000AEB0503002D83E8070004DD2A46414681
:107B9000504685F099FBA7EB09070C35002F55449B
:107BA00004DD3A464946284685F080FB3D44B8F15D
:107BB000000F02D040466EF0EDF90C2000FB04A44B
:107BC000C6E900A5B460BDE8F88F1C46CFE700BF4A
:107BD000ABAAAAAAAAAAAA0A352C0B002DE9F84F2B
:107BE000064689469346FEF7C2FDD6E900A8071E61
:107BF000A9EB0A0428D001DA7DF0C8FC6FF08AFFF7
:107C000005469BF800302B55002C04DD22465146DA
:107C1000284685F059FBA8EB09080134B8F1000F9C
:107C20002C4404DD42464946204685F03FFB44444F
:107C3000BAF1000F02D050466EF0ACF9C6E900541C
:107C40003D44B560BDE8F88F3D46DAE710B50C1A43
:107C5000002C134605DD01462246184685F034FB0C
:107C60000346181910BDB0F1005F08B501D37DF0CF
:107C70008DFCBDE8084080006FF04CBF08B16EF08D
:107C800089B97047B1F1005FF8B504460E4602D3DA
:107C900010487DF081FC026883689B1AB1EBA30F4A
:107CA00014D94768BF1A91B10846FFF7DCFF0546B3
:107CB0002A46D4E90001FFF7C9FF2068FFF7DEFF7D
:107CC0002F44256005EB86056760A560F8BD0D466D
:107CD000EEE700BF572C0B002DE9F843D0E9014334
:107CE0009C420746894607D00B6844F8043B446031
:107CF00078680438BDE8F883D0F800806FF06042FF
:107D0000A4EB0804B2EBA40F4FEAA40302D1164877
:107D10007DF042FC012B1D4638BF0125ED1821D214
:107D20003DB1954228BF1546A8006FF0F3FE064608
:107D300000E02E46D9F800303351002C04DD2246F5
:107D40004146304685F0C0FA04343444B8F1000F9F
:107D500002D040466EF01EF906EB8505C7E90064C7
:107D6000BD60C5E71546DFE7352C0B0038B5034687
:107D7000D3E90035ED1A6FF06043AC10A3EBA50515
:107D80008D42104601D27DF007FCA14238BF21464A
:107D9000601803D2984228BF184638BD1846FCE741
:107DA0002DE9F84F05460F4691460121134AFFF78A
:107DB000DDFFD5E9008A0646A7EB080BD8B1FFF72F
:107DC00052FF0446D9F8003044F80B3022463946B9
:107DD0004046FFF73BFF5146021D3846FFF736FF8E
:107DE00007464046FFF74AFFC5E9004704EB860413
:107DF000AC60BDE8F88F0446E4E700BF352C0B000B
:107E0000D0E90032934218BF4360704710B5044672
:107E10000068FFF733FF204610BD30B50D6883685A
:107E200085B0D0E9004205604D68456003938D68D8
:107E300085600023C1E900338B6001A8CDE90142D0
:107E4000FFF7E4FF05B030BDD0E900239A4209D125
:107E5000C3681A1F53F8043C436003F5FC73C26007
:107E6000836003600368183B0360704708B5054BE7
:107E7000984201D97DF08AFB18235843BDE8084099
:107E80006FF048BE5555550513B50B460246D0E96F
:107E900000016C4684E8030093E8030082E80300D5
:107EA00094E8030083E80300986891689060996003
:107EB000D168D868D060D96002B010BD10B5037821
:107EC000DB07044604D56EF013F8E368C01A10BD52
:107ED0004FF0FF30FBE708B5064B074A1868074923
:107EE00000F618706AF030FCBDE808400E2013F070
:107EF000DBBD00BF187F0120672C0B00802C0B001E
:107F000070B5046805460E46AC4207D0A068036809
:107F100031469B68984710B92468F5E7002070BD8A
:107F200010B5D0E90043144AE31ADB1002FB031238
:107F3000002A1BDB142A04DC182303FB0141016027
:107F400010BD152392FBF3F3C16801EB830451F8D4
:107F50002310C46001F5FC748460152404FB132312
:107F6000182202FB031341600360E9E7D3431521A4
:107F7000B3FBF1F3DB43E7E7ABAAAAAACA68C3687D
:107F80009B1AD0E90020121A07489B10D2104243D6
:107F900010B5013B152404FB03238A680968521AB3
:107FA000D21000FB023010BDABAAAAAA2DE9F047FF
:107FB00004460F4600F108011830FFF7DFFF3C4B85
:107FC000984202D13B487DF0E7FA626A2068636814
:107FD000111AA3EBA101012925D86169A2EB0108BF
:107FE0004FEAA806B51CB3EB450F3CD95D1B6D08E5
:107FF00000EB8505131DA942A3EB01022CD9994280
:1080000002D0284685F060F92B68E36003F5FC7325
:10801000236105EB0803636255F80830E36103F55B
:10802000FC73656123624FF4FC70656A6FF072FD4A
:1080300068603D460FCDA6690FC6636A95E80300E8
:108040001A1D5B6886E80300626203F5FC72E36157
:108050002262A361BDE8F0879942D5D008F10400FF
:10806000801A2844CEE703F10209012B2CBF994462
:1080700009F10109B9F1005F01D37DF087FA4FEAF8
:1080800089006FF047FD626A6169A9EB050504325A
:108090006D089142824600EB850503D0521A2846AE
:1080A00085F012F920686DF075FFC4E900A9ABE70F
:1080B00055555505862C0B0073B5044616460D46DE
:1080C00019B912B10D487DF064FA731B0F2B01939F
:1080D00007D9002201A920467DF060FC019B2060A9
:1080E000A3603246294620687DF0E8FC019B2268A7
:1080F00063600021D15402B070BD00BFB62C0B00EC
:10810000FFF7DABF036870B5044663B1436A456997
:108110001E1DAE4204D955F8040B6DF03BFFF8E785
:1081200020686DF037FF204670BD03688268183301
:108130009342036008D1C3681A1D5B68C26003F5EF
:10814000FC72436082600360704744DF704743DF26
:10815000704742DF7047064B1868043B1B68082BCA
:1081600004D103288CBF00200120704700207047F5
:1081700034010010024B1B68DB0700D500BE7047BE
:10818000F0ED00E0034B1B68DB0700D500BE0020CC
:10819000704700BFF0ED00E037B5044614200191B0
:1081A0006FF0B8FC0199054619F0CEFB256003B0CD
:1081B00030BD022A70B5054607D0032A13D0012A24
:1081C00001D10B680360002070BD0C6814206FF0B3
:1081D000A1FC2146064651F8043B40F8043B18F048
:1081E00053F82E60EFE7FEF72FFAECE7E1E7022AFB
:1081F00070B5054607D0032A13D0012A01D10B68B8
:108200000360002070BD0C6814206FF083FC2146D1
:10821000064651F8043B40F8043B18F035F82E6050
:10822000EFE7FEF711FAECE7022A70B5054607D032
:10823000032A13D0012A01D10B680360002070BD0E
:108240000C6814206FF066FC2146064651F8043B8A
:1082500040F8043B18F018F82E60EFE7FEF7F4F949
:10826000ECE7E1E7022A70B5054607D0032A13D0F0
:10827000012A01D10B680360002070BD0C68142036
:108280006FF048FC2146064651F8043B40F8043B99
:1082900017F0FAFF2E60EFE7FEF7D6F9ECE7E1E71B
:1082A000E0E7DFE71FB50446684617F0EDFF21461B
:1082B0006846FFF7E9FD68466AF064FE204604B0B0
:1082C00010BD1FB500F11801684617F0ECFF6846B5
:1082D000FFF7BAFD009805B05DF804FB014B93F879
:1082E00058017047C87A0020014B93F84901704744
:1082F000C87A0020014B93F862017047C87A0020C9
:108300002DE9F041DFF8C883C44BC54DC54E40464A
:1083100094B0442240F80C3B0021002484F0EEFF8E
:10832000C14BC8F8083008F1540188F80440012016
:108330006EF00EF8BD4BC8F85000C8F80030BC4ACB
:10834000BC4940467CF068FFBB48B94ABB49C0F80D
:1083500084404FF40053A0F88030B94BC0F8883007
:10836000A0F89C407CF058FFB648B14AB64904805A
:10837000C0E903444460047244617CF04DFFB34B98
:10838000AE610822C3E901441A70DC601C82B04B64
:10839000B04A1A600127B04ADA601F719C601C82E3
:1083A00019232B614FF47A732B62C5F82880C5E935
:1083B0000055C5E90C44AC60AC81AC73AC82EC6197
:1083C00085F82C408022214605F17C0085F8384054
:1083D00085F8784084F092FF8822214605F1FC0060
:1083E00084F08CFF924A9D4928467CF015FF9C48FA
:1083F0008F4A9C498460C0E900007CF00DFF9A48D8
:108400008B4A98498460C0E900007CF005FF9748DA
:10841000874A94498460C0E900007CF0FDFE9448DE
:1084200069F0BAFA824A934991487CF0F5FE4FF41C
:108430008E706FF06FFB054620222146043084F0D9
:108440005DFF6C621022214605F1280084F056FF82
:108450002122214605F1380084F050FF20222146D8
:1084600005F1590084F04AFF2022214605F17900E8
:1084700084F044FF2022214605F1990084F03EFF5C
:108480002022214605F1B90084F038FF2022214640
:1084900005F1D90084F032FF2022214605F1F900D0
:1084A00084F02CFF06F124032B60734B73481D608E
:1084B00006F16808724B10930EA9CDF838808DF83C
:1084C0003E40ADF83C4011943EF092FD584A6D4953
:1084D0006A486D4D7CF0A0FE6C4B6D4810930EA960
:1084E000CDF838808DF83E40ADF83C40119404F052
:1084F000A1FA4F4A674966487CF08EFE664B674892
:1085000010930EA9CDF838808DF83E40ADF83C4070
:10851000119404F08FFA464A5E4960487CF07CFE74
:108520005F4B604810930EA9CDF838808DF83E401F
:10853000ADF83C40119404F07DFA3D4A5549594844
:108540007CF06AFE584B594810930EA9CDF838803C
:108550008DF83E40ADF83C40119404F06BFA344A7B
:108560004C4952487CF058FE41F60A030EA92846B1
:10857000CDF83880ADF83C30CDE910448DF83E7030
:108580003EF036FD284606F1780340F8183B2422D9
:10859000214684F0B3FE464BEB611C23C5E90F4432
:1085A00085F83D30434BEB62052385F84130424B63
:1085B0002B63132385F8423085F8444028463F4D0D
:1085C0001B4A3F497CF028FE41F60F030EA92846BE
:1085D000CDF83880ADF83C30CDE910448DF83E70D0
:1085E0003EF006FD284606F18C0340F8183B0EA924
:1085F00042F61923ADF83C30CDF83880CDE910446F
:108600008DF83E7004F016FA28462E4D084A2E4981
:108610007CF002FE2D4BCDF838805BE0D0610B0082
:10862000B03E0120F82C0B0064600020E0610B00DC
:108630000060002065ED0200084501202978050052
:1086400080EE3600C8670120810A0700E467012038
:10865000FC67012000F0024008061100677004006A
:1086600010680120093D07001C68012028680120CE
:10867000486801208B1909004C680120086B012013
:10868000FA030D006B4D0700906B01200B040D00E9
:108690005068012059CA02001B040D00486C0120DB
:1086A000E9030D00A06E0120D8030D00A868012089
:1086B00094050D00442B0B004A2B0B00D86B0120B6
:1086C000694D0700206B01206D4D070021320C0021
:1086D000E07100200EA9284610938DF83E40ADF8B9
:1086E0003C4011943EF084FC284606F1A00340F87B
:1086F000183B0EA9BA4B1093CDF838808DF83E4048
:10870000ADF83C40119404F095F9B64AB6492846B4
:108710007CF082FD234622462146B44800946CF04A
:108720006FFAB348B34D69F037F9AE4AB249B04871
:108730007CF072FDB148AB4AB14904607CF06CFD3D
:10874000B048A84AAE4904607CF066FDAE4B2B6190
:108750002846AE4BEB6006F1B40340F8143B6D6065
:1087600047F2A802214684F0C9FD46222146A848C6
:1087700084F0C4FD9B4AA74928467CF04DFDA648DD
:10878000984AA6498460C0E900007CF045FDA448F1
:10879000A44D944AA449C463C0E90144C0E9034418
:1087A000C0E90544C0E90744C0E90944C0E90B44F5
:1087B000C0E90D447CF030FD9C4B2B6128469C4B5E
:1087C000EB6006F1CC0340F8143B6D604FF4FB52B4
:1087D000214684F093FD10222146964884F08EFDB8
:1087E000804A95492846954D7CF016FD944B2B61A7
:1087F0002846944BEB6006F1E40340F8143B6D60AF
:108800002022214684F07AFD764A8F496C632846FF
:108810008E4D7CF001FD8E4B2B6128468D4BEB601D
:1088200006F1FC0340F8183B6D604FF4F0622146FE
:1088300084F064FD6B4A8849C5F8984728467CF067
:10884000EBFC86482146102220F8024B84F056FDAE
:108850005C206FF05FF9054607F096FF2B46804AD3
:1088600043F8382BC5E90E3306F58A736B637D4BED
:108870002C64C5E912344FF400734FF00208A5F8D8
:108880005830794B6D6485F850806C6585F85A8056
:108890006F62CC201D606FF03DF9054607F074FF54
:1088A0002B46724A43F8382BC5E90E3306F594730C
:1088B0006B636F4B2C6421467422C5E912346D64DE
:1088C000A5F8504085F8524005F1540084F016FD9B
:1088D000684BC5F8C840C5F8248058201D606FF06B
:1088E00019F9054607F050FF2B46634A43F8382B29
:1088F000C5E90E33614B2C64C5E9123403236B6266
:1089000006F59E765E4B6E636D642C65A5F854404B
:1089100085F856406C201D606FF0FCF8054607F0A6
:1089200033FF2B46574A43F8382BC5E90E33564BD5
:108930006B63564B564E574A574831782C64C5E9FD
:10894000123405F15C03C5E9153404236B62534B03
:108950006D641D6033881380514A2C651380514A21
:1089600085F85C401380504A846013804F4A13801E
:108970004F4B727859709A701C701A4A4D49C0E971
:1089800000447CF049FC4C48164A4C4984607CF019
:1089900043FC4B48134A4B4984607CF03DFC4A48F9
:1089A000104A4A498460C0E900447CF035FC4848DC
:1089B0000C4A48498460C0E900447CF02DFC4648DC
:1089C000084A44498460C0E900447CF025FC4348DF
:1089D000044A43498460C0E900447CF01DFC81E006
:1089E00031320C00006000206F4D0700F8B200200B
:1089F000F044012010B400208B1909003C470120ED
:108A0000B5F705003847012015640200076502002C
:108A1000CC240120F1D7030084440120093D070044
:108A2000548500205C910020FF480300436402004D
:108A300001650200D0B0002075C303002091002022
:108A400039640200036502004BC3030080890020E3
:108A50002F640200056502001DC303006E8900201B
:108A6000E4640B00E50103007C7B0120F4C60B00ED
:108A7000118F0400C07B01203CAE0B00D9FA03002B
:108A8000C47B012024E20C009CE20C00C9A8080071
:108A9000CB7E0120AC7B0120A03E0120CC7B0120BD
:108AA000AF7B0120A07B0120A27B0120A47B0120C1
:108AB000BC7B0120E5650200FC7700203D660200DA
:108AC000387800203D660200A844012001FE08001D
:108AD000B4440120ED180400C8440120D44401200E
:108AE000ED180400344B3025013D1C7303F10E03D7
:108AF000FAD13248324A33498560C0E900557CF0EA
:108B00008BFB31482E4A3149057200F10803C0E958
:108B100000357CF081FB2E482E4C294A2E49856079
:108B2000C0E900557CF078FB012714222946C4E9EE
:108B30000055A56004F10C0084F0E0FB204A2749B1
:108B4000274884F85070C4E90855C4E90A55C4E9B7
:108B50000C55C4E90E55C4E91055C4E912557CF012
:108B60005BFB2048164A204905607CF055FB1F4BF3
:108B70001F481D705D709D70357075701EF02AFB6A
:108B80000F4A1C491A487CF047FB1B481EF022FB89
:108B90000B4A184918487CF03FFB03222946384607
:108BA0006DF02CFB154B186080BB154B154A164811
:108BB0000C214BF0A7F900BF007C0120A07E012012
:108BC0000060002001FE0800AC7E0120E95B0A0085
:108BD000EC88002004890020137A0200EB9A04003C
:108BE00034400120C47E0120B5F70500C87E012075
:108BF000C8730020311003009C7400206C750020A5
:108C00005E2B0B00682B0B00A82B0B008F4A9049A2
:108C1000904C914F18467CF0FFFA904B904A9D6023
:108C2000C3E900258F4ADA608F4B904A9D60C3E903
:108C300000258F4ADA608F498F4B9048C3E9025272
:108C4000C3E900158E4B8F4A1A608F4A5A608F4ACB
:108C50009A608F4ADA608F4B8F4A9D60C3E9002586
:108C60008E4ADA608E4B8F4A9D60C3E900258E4A9A
:108C7000DA608E4B8E4A8F49C3E900258E4A9A608E
:108C80008E4ADA608E4B8F4A9D60C3E900258E4A7A
:108C9000DA608E4A11608E498560C2E901158D49FE
:108CA000D1608D4A8D4911608D4951608D49916027
:108CB0008D49D160C0E90035644A8C49C0F8EC5058
:108CC00080F8F0507CF0A8FA89488A4B03610523AC
:108CD000037104F14C0300264FF04008436104F196
:108CE0005803C0E90635594A834905738560046015
:108CF00080F821808562C6627CF08EFA7F48804BC6
:108D000003612223037104F16403036004F1B003DF
:108D1000436104F1BC03836142F210734B4A794909
:108D20000573856080F81C8007620663838680F87F
:108D3000368087634662C6628662C5637CF06CFAE1
:108D40007148724B03610423037104F1C80303608B
:108D500004F588733D4A6E490573856043617CF074
:108D60005BFA6C486C4B03610E23037104F58E7340
:108D7000036004F5B473436104F5BA73836142235D
:108D800080F82830654B314A654905738560C762B4
:108D9000C3610362436205637CF03EFA6148624B43
:108DA00003611C23037104F5C073036004F5E473CD
:108DB0005E4E264A5E490573C0E9053585607CF044
:108DC0002BFA5C4902A806F06DFB304606F05EFA0D
:108DD00006F13003C6E90A3502AA0EA8564986F8FC
:108DE000305006F07DFA55490EA87DF0EDF80146A9
:108DF00008A87CF0DFFE08A906F128007CF0FAFE46
:108E000008A87CF0EDFD0EA87CF0EAFD06F096FACD
:108E100002A87CF0E5FD0D4A494930467CF0FCF99A
:108E2000484B83F8E45083F8E850474B4FF47A728C
:108E30009A6004F5EA721A6004F5FE744FF47F42FA
:108E40005D601C619A8214B0BDE8F0810060002072
:108E5000D9190900482E0B00408A012044800120C6
:108E6000F12A0900D42B0B0054800120D52A0900D7
:108E7000DD2B0B00B72A090034800120648001201B
:108E80001480012069300900116502000F6502009D
:108E90005DB40B00E47F012045300900E12B0B009D
:108EA000F47F01201D300900E42B0B0024800120F9
:108EB000F92F0900CD2F09001B650200E92B0B00DB
:108EC00004800120BD620200F02B0B00D47F012042
:108ED000A32A0900F52B0B00C47F0120972F09005E
:108EE000912A090015650200F82B0B008DBB0300C9
:108EF000D4720020FE2B0B00C50703000473002072
:108F0000052C0B0003080300447300200C2C0B00FD
:108F1000010803006C730020132C0B00CDCCCC3D5A
:108F2000FF070300A47300201B2C0B008472002099
:108F3000FD070300A3720B00242C0B002F2C0B0049
:108F400019F80200F47000202C69002007B50368AE
:108F50008DF807105B6801220DF10701984703B0F7
:108F60005DF804FBA0F1100000F032B9407DFF284D
:108F700001D06AF0DFBD704710B5437DFF2B0CD0E8
:108F8000074A4FF4567000FB032001F011FC044621
:108F900008B96FF00DFA204610BD0020FCE700BFB5
:108FA000F88601202DE9F74F437DFF2B06460F463B
:108FB00014462FD015464FF4567A4FF6FE7B15B364
:108FC000707D6AF0F5FDF0B1737D134A01930AFBE1
:108FD00003294FF6FF7209F124095D4598BF2A461F
:108FE00092B23946484601F047FB8046484601F0B8
:108FF000DFFB3F28019B02D918466AF09BFDB5EBC9
:109000000805474403D1601B03B0BDE8F08F6FF043
:10901000CFF9D4E70020F7E7E886012008B5437DC3
:10902000FF2B07D0044A4FF4567000FB032001F0D9
:10903000ADFB08BD0020FCE70C87012073B5437D24
:10904000FF2B14D04FF456745C430A4E04F1100009
:1090500001220DF10701304401F03EFA05463019B6
:109060006AF0BCFD1DB19DF8070002B070BD4FF065
:10907000FF30FAE7E886012073B5457DFF2D03D167
:109080004FF0FF3002B070BD254E4FF4567303FB16
:109090000563186A18B14FF0FF316DF041FA4FF4D3
:1090A000567202FB0562118B538B908A89B29BB278
:1090B000994236BFC3EB4002CA1A521894B2E4B1C7
:1090C000A04209D281424FF456722CBF0B1A0B18E2
:1090D00002FB05629BB2538398421ED94FF456712E
:1090E00001FB05610DF10700CA8A0969C2F30E028E
:1090F00002FB031184F0DAF801244FF4567303FBEA
:109100000565286A20B100231A4619466DF09CF8BF
:10911000002CB5D09DF80700B4E71B1A9BB2DBE723
:10912000E886012010B5194B5A7DFF2A2CD11A7EF2
:1091300052BB174C5A750121197694F850110B291E
:1091400008D84A1C84F8502101F14802114844F81B
:1091500022000A461A75B4F81821B4F81A31616968
:109160000A489B1A9BB20A4494F81C1100F030F88C
:1091700050B1B4F818311844636980B2A4F81801EA
:10918000588094F81C211A7110BD00BF2C69002072
:1091900048690020345C0B0010B5407DFF2807D0E3
:1091A0006AF006FD044608B96FF002F9204610BDCA
:1091B0000024FBE7034B9B68B3F5966F01D16AF07F
:1091C00069BE7047E886012009B900B9F2E7704727
:1091D0002DE9F047074692B098461546002A00F060
:1091E00090804B4B93F81C6193F81D1193F81EA1CE
:1091F000B21C83F81C214C1C8A1C83F81D2164F0CE
:109200007F040AF1010241F08009E4B283F81E21D3
:109210004222002101A884F071F8002D6DD0B8F130
:10922000410F73D940F20220ADF8080040F2094026
:10923000ADF80C0040F20120ADF8100024208DF8AC
:10924000160034480690731C0120DBB28DF80660CE
:109250008DF80E608DF81C008DF826602E48397D43
:109260008DF81E30032640F6083208908DF827301E
:1092700040F224608DF82B608DF8313008260A23E7
:109280000427ADF804208DF8141002220521ADF852
:1092900024008DF82C6040F207508DF834304FF4E4
:1092A000116640238DF807208DF812208DF81510D7
:1092B000ADF828008DF83320ADF838008DF83B204C
:1092C0008DF81F708DF82A90ADF82E608DF83070F3
:1092D0008DF83AA08DF83C3007238DF83F308DF89B
:1092E000401044F2020342220DEB070128468DF89C
:1092F0004140ADF8423083F0D9FF422012B0BDE8C2
:10930000F087924614469146164681E70020F5E71D
:109310004869002020010524240202057FB5204B66
:10932000204A03F11006144618685968154603C50B
:109330000833B3422A46F7D11B4A1B88106851688C
:109340002B8001AB03C3127A1A7004AA12E907003A
:10935000164B03C3194603F5887001F80829144A0F
:10936000C4F818214FF48072A4F81C210122616115
:1093700084F81E210021202283F0C0FF40F209431F
:10938000C4F820310B4BC4F824310B4BC4F82831FE
:109390000023C4F82C31042384F8503104B070BD8C
:1093A0004A5C0B00486900205C5C0B00606900208F
:1093B00009000001435C0B0094050D00F0B5054663
:1093C000002004462B5D2E19002B68D003F14002CB
:1093D000D2B2012A3DD9F42B3BD81A061BD4012264
:1093E000A3F55846B6F5006F33D3B3F5803F144468
:1093F0004FD31E2853DCA3F5803342009E0A0A4453
:10940000C3F30903A6F52056A3F5105321F8106005
:1094100002305380D6E703F0E002C02A1BD103F0EC
:109420001F03022206F1010C16441CF8017B07F011
:10943000C00EBEF1800F0CD107F03F07664547EA2A
:109440008313F2D1022A16D1A3F18006B6F5F06F8C
:10945000C6D30134B6E703F0F002E02A03D103F0EB
:109460000F030322DEE703F0F802F02AF1D103F044
:1094700007030422D6E7032A04D1A3F50066B6F554
:10948000784FE5E7A3F58032B2F5801FE1D20422E0
:10949000A6E7202803D021F81030013092E7F0BD74
:1094A0000B6802490B610121184700BF5881012058
:1094B0002DE9F041174C184F8046002518262279D7
:1094C000EBB2511D994212DA38220021134883F081
:1094D00015FF1022FF2104F1090083F00FFF04F1B2
:1094E00019001222BDE8F041FF2183F007BF9A4224
:1094F00007D9226806FB032333B9BDE8F041FEF724
:1095000039BE9B1A06FB03735B68404698470135DA
:10951000D5E700BFDC6A0020705C0B00E16A002028
:10952000F8B5124C266C00F07F07C5094FF0FF31EB
:1095300030466CF0F5FF04EB47032B4425339A7952
:10954000C2F38004520708D59A7912F0010103BFD3
:109550009A7961F382029A71002400231A4619460F
:1095600030466CF071FE2046F8BD00BFDC6A00207A
:10957000F8B5194A00F07F0302EB430303EBD01068
:1095800000F1250490F82B5015F0010521D190F839
:109590002B305907C3F3800717D4166C4FF0FF31F7
:1095A00030466CF0BDFFA57915F001050FD1A37908
:1095B0005B0704D4A37943F00403A37101250023BE
:1095C0001A46194630466CF03FFE2846F8BD3D4627
:1095D000F5E70025F9E700BFDC6A002070B4827867
:1095E00002F07F03082B07D9524B1B68DB0700D51D
:1095F00000BE002070BC70474F49C478CD79818887
:1096000004F00304022CC1F30A010BD0032C45D053
:10961000012C11D1022D40F2FF3408BF4FF48064B9
:10962000A1420DE0022D0AD1B1F5007F09D0414BD6
:109630001B68DA0700D500BE70BCFEF7A3BD402949
:10964000F5D83E4E5C0004EBD21406EB0414D509A9
:109650002181C17801F0030101292FD0012038496F
:1096600000FA03F405BB03F10C06B040C1F8040393
:10967000D1F8140503F594730443C1F8144541F877
:1096800023502F4BC3F8182542F48072C3F80C25E1
:10969000BFF36F8FBFF34F8F0120ABE7022D0CBFDD
:1096A0004FF480644024BBE702339840C1F80403C0
:1096B000D1F810351C43C1F81045E2E7082B93D1CF
:1096C0001F4BDDB9B6F8182112B18022C3F81C2552
:1096D0000022C3F85021D3F8002312F4001208BF6F
:1096E000C3F85421164B4FF44012C3F80423D3F8A7
:1096F000142542F48072C3F81425C9E70022C3F888
:109700002C21B6F8082112B18022C3F81C250C4B7D
:10971000D3F8002312F4001208BFC3F85421094AF9
:10972000C3F80423D3F8102542F48072C3F810253F
:10973000AEE700BFF0ED00E0DC6A0020346C0020F2
:10974000007002400008200010B50B4B00F07F02B3
:1097500003EB420303EBD0142534A3799B0709D410
:1097600001F07AFAA37943F00203A371A37943F0DD
:109770000103A37110BD00BFDC6A002010B5104BBF
:1097800004460146187801F023F80E4B04F07F01DF
:1097900003EB410303EBD41090F82B306FF341033C
:1097A00080F82B3090F82B306FF3000380F82B30CB
:1097B00090F82B306FF3820380F82B3010BD00BF80
:1097C00004600020DC6A00202DE9F843DDE9088907
:1097D0000C4616461F460025AE4201DC01200EE075
:1097E0006378052B04D1E37803F00303BB4208D070
:1097F0000D4B186810F0010001D000BE0020BDE83C
:10980000F8832046FFF7EAFE18B9BDE8F843FEF7F3
:10981000B9BCA378DA0914BF89F8003088F80030A1
:10982000237801351C44D7E7F0ED00E01FB5CDE902
:1098300002011149002308240193486C8DF805406A
:109840003AB9134601A94FF0FF326CF0FDFC04B0A9
:1098500010BD6A4601A900936CF08FFD009B002BA0
:10986000F5D0064B4FF080525A6040BFBFF34F8F88
:10987000BFF36F8FEBE700BFDC6A002000ED00E074
:109880002DE9FF414378484C023B0546042B12D892
:10989000DFE803F003291B22710063796FF30003F3
:1098A0006371637900226FF341036371A27163797D
:1098B00062F382036371606C002961D10B464FF043
:1098C000FF3229466CF0C0FC2FE06379D8072CD515
:1098D000637943F00403EDE76379DA0725D563790B
:1098E0006FF38203E6E763795B0715D563796FF35E
:1098F000820363710278606C0023CDE901338DF837
:109900000420052203938DF8052089B90B464FF0FA
:10991000FF3201A96CF098FCDFF89480002618272C
:109920002279F3B2511D994214DA04B0BDE8F081F6
:109930006A4601A900936CF020FD009B002BEBD040
:109940001A4B4FF080525A6040BFBFF34F8FBFF3A6
:109950006F8FE1E79A420AD9226807FB032323B1FC
:109960005B6913B16968287898470136D8E79B1A74
:1099700007FB0383F4E7237A0133DBB223729AE710
:10998000002301AA294601936CF0F7FC019B002BF0
:10999000CBD0064B4FF080525A6040BFBFF34F8F81
:1099A000BFF36F8FC1E700BFDC6A002000ED00E06D
:1099B000705C0B002DE9FF47474D074600F07F0024
:1099C00005EB400606EBD7162536B47914F00104F2
:1099D0004FEAD71E4FEA400306D0FEF7D3FB0446FA
:1099E000204604B0BDE8F08796F806C0DFF8008195
:1099F0004CF0010C86F806C003EB0E0C4FEA0C1974
:109A000008EB0C1C46469CF80BA0BAF1000F17D0CF
:109A1000324A1168C90700D500BE2B44734493F83D
:109A20002B106FF3000183F82B1093F82B106FF3BA
:109A3000820183F82B101368DB07D1D500BECFE776
:109A400048F80910ACF80420ACF8064008BB02BB8B
:109A5000234BD3F88034C3F3C0139E4519D021485B
:109A600000F02EFF204B59680394C1F30801003920
:109A70004FF4E06318BF012101A8CDE90144ADF81E
:109A800004308DF808708DF80940FFF7F9FE0124C5
:109A9000A6E70125BEF1000F1AD106EB4012D572E0
:109AA00018B9124800F00CFFF1E7BFF36F8FBFF356
:109AB0004F8F937A03F0FF0443B1D37A03F0FF058D
:109AC000002B8DD082F80AE001F062F82C4687E77F
:109AD00001F0E8F8FAE700BFDC6A0020F0ED00E0F2
:109AE000007002405070024000ED00E04C700240F7
:109AF000346C00202DE9F04FB54B1B78FF2B93B051
:109B0000834600F029844FF47A72002380024FEAE2
:109B10009B5182F0D9FD012838BF01200390AD4C44
:109B2000BBF1FF3F606C26461BD0039BBBF1000FCF
:109B300014BF1A46002207A96CF078FC002800F038
:109B40000B849DF81D30013B072B00F2B283DFE848
:109B500013F00A001C00B003170426042B008D0329
:109B600032045A46E7E79DF81C00FFF7A1FC9A482B
:109B70001422002183F0C2FB9DF82030E371606C59
:109B80006CF064FD0028CAD1E6E39DF81C00FFF7E5
:109B90008FFC91481422002183F0B0FB8F4B002BE7
:109BA000EDD0AFF30080EAE7237A013BDBB223720A
:109BB000227A02F0FF03002AE1D16279DFF81882ED
:109BC0009DF81C50C8F8103042F00102627194F800
:109BD0002B2063F3000284F82B2094F82B2063F3EE
:109BE000820284F82B2094F82C2063F3000284F87E
:109BF0002C2094F82C2063F382029DF8203084F806
:109C00002C2003F06002602A06D1754B1B68DD072B
:109C100040F1DF8200BEDCE2402A0AD1714BC8F875
:109C2000103008AA012128466AF0C6F80028A6D1FB
:109C3000CFE203F01F03012B00F03E82022B00F065
:109C40008882002BE1D1202A20D19DF824300F2BCF
:109C500000F2BF821E442379717A99420CD22368A4
:109C600001EB410113EBC10100F0B38208AA0C31F2
:109C70002846FFF715FCD9E75A1D8A42C0F2A9828F
:109C8000594AC91A182303FB0121EFE7002ABCD166
:109C90009DF82130092BB8D801A252F823F000BF5B
:109CA000A3A0020091A002000B9C02007DA0020074
:109CB0000B9C0200C99C02002F9F02000B9C02001B
:109CC000FD9C0200119D0200DDE90801474BC8E937
:109CD0000001D3F80014D3F8000400220143C8E9BE
:109CE0000222C3F80014C3F858214FF48002C3F8CD
:109CF0000423637943F00203637140E7A3798DF88D
:109D0000383001230EAA08A9284669F03DFA36E743
:109D10009DF822300193019AA3799A4200F08A803B
:109D2000A379002B42D0324B8022C3F88420BFF3AA
:109D30004F8FBFF36F8F0127DFF8B080DFF8C0A02F
:109D4000B94607F10C03BA1C09FA02F209FA03F347
:109D50001343C8F80833BB0003F1804303F51C33F9
:109D6000002159600AEB471099622022013783F0E5
:109D7000C5FA082F4FF00001E3D11E4BC8F8083395
:109D80002022C8F81C151C48C8F82410C8F8481030
:109D900083F0B4FAC8F81495C8F81095144B8022D3
:109DA0005A60E7792846FFF783FBE771019B002B98
:109DB00000F0B780114B5A6912B15378022B21D0B1
:109DC000074B1B68DA077FF520AF00BE1DE700BF19
:109DD00004600020DC6A002058810120000000009F
:109DE000F0ED00E0B93D0900705C0B00007002402E
:109DF00000E100E000083000346D002048690020D8
:109E0000346C0020D379C3F38011C3F340131B01DA
:109E100043EA4113617921F030010B4363715388A8
:109E2000D31802F109010293029B8B4209D8B74B68
:109E3000002B73D1019BA37108A9284669F060F932
:109E40009DE64B780B2B03BF0B7891F80390C91854
:109E50004FF001094B78042BB2D1029B5A1A92B2EF
:109E60004FF0000A37795FFA8AF87B1D9845A7DC26
:109E700047452ED93768182303FB0877002F9FD05A
:109E8000BB682846CDE9041298470828DDE904128A
:109E900041D982423FD3B9F1010F0AD1BB689C4A34
:109EA000934208BF4FF002099A4A934208BF4FF00D
:109EB00002090022D3B2994512D8974A0844884231
:109EC0001AD8954B1B79053398453FF779AF014672
:109ED000AAE7924BA8EB0707182000FB0737CFE74C
:109EE0008F783B4456FA83F301325F7AFF2F7FF479
:109EF00067AF83F80980DDE74B78052B08D18F78B1
:109F000007F07F0302EB430303EBD71383F81980B9
:109F10000B781944D3E70AF1010AA3E7AFF30080F5
:109F200088E77F4B002B85D0AFF3008082E7BDF838
:109F30002200030A5A1EC0B20E2A00F24A81DFE84C
:109F400012F00F001A002B004801480191001A007E
:109F500048014801480148014801480148011600EC
:109F6000704A122308A9284669F00EF95EE66E4A87
:109F700032F80239F6E7022B06D16A4B5A69002AF9
:109F80003FF443AE5388EDE7684B002B00F021818E
:109F9000AFF300800246F2E7624E60B1032819D0A9
:109FA00096F85031834240F21481483006F5AA7188
:109FB00056F8200053E0D6F82031A6F8543101209D
:109FC0000130430043F44072A6F8522103F0FE032F
:109FD000574AC7E7D6F82C71002F3DD10AA869F07F
:109FE0005BFF0DF1280C0346B6463A46D1B28B42D0
:109FF0000EF1040E2DD94F4F0DF1380907F1100A5B
:10A0000038687968C846A8E8030008375745C1464C
:10A01000F6D11CF8018B474F08F00F0112A801443C
:10A020000DF1380A11F8101CAEF852117968386831
:10A03000D146A9E80300404908378F42CA46F5D106
:10A0400012A901EB1818013218F8101CAEF85011C3
:10A05000CCE75800C0B2B3E706F5AA713846FFF75F
:10A06000ADF9F7E7354B002B00F0B380AFF300807C
:10A070000246002800F0AD80037873E7BDF8223077
:10A08000012B40F0A680637943F008036371D3E6A7
:10A09000BDF82230012B40F09C8063796FF3C3033D
:10A0A000F4E76379C3F340129B0803F00203134300
:10A0B000ADF83830022325E69DF824300F2B00F24E
:10A0C00088801E442379717A994239D2236801EB42
:10A0D000410113EBC1017CD008AA0C312846FFF7DF
:10A0E000DFF900287FF44BAD9DF8203013F06003BA
:10A0F0006FD19DF82120A2F10A01012969D80A2A0D
:10A10000C8F810307FF498AEF9E500BF00000000F9
:10A110000D3D09006D350900DC6A0020705C0B0004
:10A120000000000048690020EE040D00000000005F
:10A130009A6A0020C4390D00D4390D0000000000D7
:10A140005A1D8A4245DBA24AC91A182303FB012182
:10A15000C2E79DF8240000F07F0CBCF1080F3FF629
:10A1600054AD06EB4C0707EBD01794F804E07F7E64
:10A1700077454FEAD0114FEA4C0A16D2236807EB15
:10A18000470703EBC70712BB9DF8212002F0FD0E25
:10A19000BEF1010F24D0002A7FF437AD564431447C
:10A1A00091F82B30C3F3400382E70EF10509B9455E
:10A1B000C0F20981864BA7EB0E074FF0180E0EFB7D
:10A1C0000737002AE0D008AA07F10C0150E5002F5C
:10A1D000F9D1002000F040FD802000F03DFDCEE4EC
:10A1E000BDF822E0BEF1000F2BD1012A3BD106EBD6
:10A1F0000A020A4425329279930722D510F0770F8C
:10A2000011D0744A40F4807EC2F80C05C2F80CE507
:10A21000C2F8180519B90CF5947C42F82C10BFF35C
:10A220006F8FBFF34F8F5644314491F82B306FF34B
:10A23000410381F82B3091F82B306FF3000381F844
:10A240002B30002F3FF49BAC08AA07F10C012846E5
:10A25000FFF726F90023C8F8103094F82C30DE07F9
:10A260003FF58DACE8E5FFF76FFAEAE79DF82010BF
:10A2700001F07F0706EB470606EBD116CA0996F8F0
:10A280002B006FF3000086F82B0096F82B006FF37D
:10A29000820086F82B00002F4FD14F4D9DF81C6097
:10A2A0002B78DDF82480B2EBD31F12D0B8F1000F69
:10A2B00006D04A4B1B68DB077FF561AC00BE5EE44D
:10A2C0002B69002B3FF45BAC2A46032130469847AC
:10A2D00055E495F90030002B07DBA86800283FF40F
:10A2E0004EAC3F49424682F0E1FFAA68EB89424406
:10A2F0004344AA60EA889BB29A42EB8102D0B8F14B
:10A300003F0F16D82B696BB995F900300022002B4E
:10A310001146B4BF38468020FFF74CFB00287FF47D
:10A320002EACC6E72C4A0221304698470028EBD1D4
:10A3300050E7304668F0FCFEF0E7737E22799342E6
:10A340000DD2226803EB430312EBC3030FD1234B5F
:10A350001B68D80700D500BE13B0BDE8F08F501DB4
:10A360009842F4DB1A489B1A182202FB03031D696A
:10A370009DF82120099B9DF81C00A847FFF7FFBB13
:10A380006379D9077FF5FBAB164B002B3FF4F7AB96
:10A390006079C0F3C000AFF30080FFF7F0BB6379D2
:10A3A000DA077FF5ECAB104B002B3FF4E8ABAFF3D3
:10A3B0000080FFF7E4BB089B002B3FF4E0AB09985B
:10A3C0009847FFF7DCBB002A7FF403AF1746DBE6B4
:10A3D000705C0B000070024058810120F0ED00E03D
:10A3E0006C81012000000000000000002DE9F7430F
:10A3F000DFF8D88098F80030FF2B0646474648D152
:10A40000DFF8CC903822002109F1050082F076FFB8
:10A4100009F1480101206BF09BFF4D46C9F840004F
:10A4200040B9274B1B6813F0010F46D1002003B041
:10A43000BDE8F08300230093D8F80820B8F8061090
:10A44000B8F8040008F110036BF0C2FED8F80C1045
:10A4500004466CF013F9C9F844402CB9184B1B683A
:10A46000DB07E3D500BEE1E7164B23B1281DAFF3B0
:10A470000080C9F80000DFF85C9000244FF0180855
:10A480002879E3B2421D934205DD3E700E4B8022D7
:10A490005A600120CBE7984208D9286808FB0300DE
:10A4A00038B9074A126812F0010FBEE71B1A08FB01
:10A4B0000390036898470134E2E700BEB7E700BFA6
:10A4C000F0ED00E00000000000E100E0046000208A
:10A4D000DC6A0020705C0B002DE9F047064600693D
:10A4E0008846914618B14FF0FF316CF019F8338966
:10A4F0007489B7889BB2A4B2A34236BFC4EB4705A8
:10A500001D1BED18ADB2F5B1AF4206D2BB422CBF58
:10A51000DC1BDC19A4B274813D464D4528BF4D4675
:10A52000A74229D9F2883168A7EB04091FFA89F9F3
:10A53000C2F30E0A4D4552460AFB04111FD86A4366
:10A54000404682F0B3FE7389B28899B215FA83F35C
:10A550009BB299424FEA420201D8934201DB9B1A17
:10A560009BB23069738120B100231A4619466BF003
:10A570006BFE2846BDE8F087E41BA4B2D0E719FBC8
:10A580000AF91FFA89F94A46404682F08FFEEA1B13
:10A59000224412FB0AF2316892B208EB0900D0E7BC
:10A5A000F8B50446C0680F4616461D4618B14FF070
:10A5B000FF316BF0B5FF206918B14FF0FF316BF040
:10A5C000AFFFED03E0682760002345F001056381DC
:10A5D000A680E580238118B11A4619466BF034FE37
:10A5E000206920B100231A4619466BF02DFE012088
:10A5F000F8BD38B50446C0680D4618B14FF0FF31BC
:10A600006BF08EFF206918B14FF0FF316BF088FFBF
:10A61000E379E06865F3C713E37120B100231A46BC
:10A6200019466BF011FE206920B100231A46194625
:10A630006BF00AFE012038BD10B50446C06818B1A1
:10A640004FF0FF316BF06CFF206918B14FF0FF3114
:10A650006BF066FFE06800236381238118B11A461E
:10A6600019466BF0F1FD206920B100231A46194606
:10A670006BF0EAFD012010BD2DE9F84F0746884632
:10A68000164642B3C06818B14FF0FF316BF048FF77
:10A69000FA793D897B89B7F80490D209ADB29BB2B3
:10A6A0001CD19D4239BFC3EB49046419EB1A9CB21B
:10A6B00038BFA4B2A14586BFA9EB0404A4B200240C
:10A6C000A64228BF264656BBF86820B100231A468A
:10A6D00019466BF0B9FD3046BDE8F88FF9884E4554
:10A6E000C1F30E0106D3A6EB090601FB06881D4641
:10A6F0004E46E8E79D424FEA490136BFCA1AEA1AB8
:10A70000521992B232448A4209DB09EB0305AD1BB0
:10A71000ADB2AB4201D8A94201DC6D1AADB22C46F4
:10A72000A1451DD9FA883868A9EB040A1FFA8AFAEC
:10A73000C2F30E0BB2455A460BFB040014D372430E
:10A74000414682F0B3FD7319BA889BB2AB424FEA1F
:10A75000420201D3934201DB9B1A9BB23B81B3E7D8
:10A76000A4EB0904A4B2DBE71AFB0BFA1FFA8AFA7E
:10A770005246414682F09AFDA6EB0903234413FB9F
:10A780000BF2386892B208EB0A01DAE78288038993
:10A7900040899BB280B2834236BFC0EB4200181A98
:10A7A000C01880B2824286BF101A80B20020704763
:10A7B0000389428981889BB292B2934236BFC2EB31
:10A7C00041029B1A9B1898B2884228BF08467047DE
:10A7D00070B501F07F05082D2A4B2B4C4FEAD111A3
:10A7E00023D0012202FA05F0C043A1B905F10C06FD
:10A7F000B240C3F80823D3F814251040C3F8140559
:10A8000001EB450104EB01110023CB72BFF36F8F05
:10A81000BFF34F8F70BDAE1CB240C3F80823D3F80E
:10A8200010251040C3F81005EAE704EB01120020E0
:10A83000A2F80801D1B94FF48012C3F80823D3F865
:10A84000142522F48072C3F81425C3F850110D4B5F
:10A85000B4F808010022C3F81C25B4F81821C2423C
:10A8600004BF4FF40012C3F80823C9E74FF4006295
:10A87000C3F80823D3F8102522F48072C3F81025FA
:10A88000E5E700BF00700240346C00200123036044
:10A89000BFF36F8FBFF34F8F074B984202D0043B3B
:10A8A000984207D1BFF35B8F044B002283F820212D
:10A8B000BFF35B8F704700BF50700240346C0020C4
:10A8C00010B40D4BBFF35B8F01464FF00104D3E88A
:10A8D0004F2FC3E84C4FBCF1000FF8D1BFF35B8F93
:10A8E00012F0FF0F05D005485DF8044B0122FEF77A
:10A8F0009DBF5DF8044BC9E7546D0020C1A802005C
:10A9000043F2040307B51A68094B9A424FF000005E
:10A910000AD18DF807000DF10700FCF72FF89DF81C
:10A920000700003818BF012003B05DF804FB00BF2A
:10A93000DBE5B15107B5FFF7E3FF58B1002301A8EC
:10A940000193FDF702FC0198003818BF012003B005
:10A950005DF804FB4FF08043D3F80C24D3F80C04CB
:10A9600010F4803018BF02F00100F0E701281FB595
:10A97000044600F0B980022853D0002842D1774B1A
:10A98000D3F80025002A3DD14FF48002C3F80823F4
:10A990004FF40062C3F80024BFF36F8FBFF34F8FF3
:10A9A0006F4B1B68082B10D16E4B1B68032B0CD808
:10A9B0006D4AD35C4BB16D4B6D4A1868032118BBCF
:10A9C00049F27530186011601860FDF7C4FB48B19A
:10A9D000664B684A1868C021C0B949F275301860E2
:10A9E000116018605D4B0124C3F80045BFF36F8F01
:10A9F000BFF34F8FFFF79EFF20B9FFF781FF38B1FC
:10AA0000FDF7A7FB04B010BD1160DEE71160E9E7B8
:10AA1000594B18601B680193019B4FF080431C60E9
:10AA2000F0E74E4CD4F804351BB1FFF783FF002844
:10AA3000E8D1D4F800341B05FBD54FF40063C4F80B
:10AA40000034BFF36F8FBFF34F8FFDF784FB48B126
:10AA5000464B484A1868002840D149F275311960C0
:10AA6000106019603E4B1B68082B0FD13D4B1B68D3
:10AA7000032B0BD83C4AD35C43B13C4B3C4A18688F
:10AA800078BB49F27531196010601960FDF763FBFE
:10AA900048B13A4B40F2E3721A6040225A60BFF369
:10AAA0006F8FBFF34F8F2D4C354880220121C4F8A2
:10AAB0001C25C4F804133349C1F884210078FF2809
:10AAC00000D04A60FFF736FF0028FBD00123C4F80E
:10AAD0000435BFF36F8FBFF34F8F93E700231360ED
:10AAE000C0E700231360D1E71C4BD3F80025002AF0
:10AAF00088D00022C3F80425BFF36F8FBFF34F8FB8
:10AB000020498020C1F88400BFF34F8FBFF36F8FBF
:10AB1000D3F80013C3F80813C3F80025BFF36F8FF1
:10AB2000BFF34F8FFFF7ECFEA0B1FDF710FB164B04
:10AB30005968C1F3080100230039CDE901330393BB
:10AB400018BF01214FF4007301A8ADF80430FEF7DF
:10AB500097FE57E70D4B1C60E9E700BF007002400D
:10AB60003001001034010010005D0B0000EC0640C5
:10AB700014ED064014EC064000010040007802404D
:10AB80000460002000E100E000ED00E0040000406F
:10AB9000F0B42B4ABFF35B8F02F590734FF00104C2
:10ABA000D3E84F1FC3E8454F002DF9D1BFF35B8FAA
:10ABB00011F0FF0F14460BD0224B5A68C2F3080263
:10ABC000003A0146F0BC204818BF0122FEF72EBE15
:10ABD00008281E4919D1D1F8C034D80308D5BFF3CD
:10ABE0005B8F002384F82031BFF35B8FF0BC70478C
:10ABF00092F80B010028F2D0D2F800211448C1F8D5
:10AC0000A027C1F8A437F0BC40E602EB401500F5E0
:10AC10009473460151F82340EF88AB88DB1B9BB24D
:10AC2000A4B2A34228BF23469459142202FB001168
:10AC3000C1F80047C1F80437064B03EB8000E2E798
:10AC4000346C002000ED00E0A1AC02000070024076
:10AC5000487002402870024010F07F0108B507D10B
:10AC60000D4B01225A65BFF36F8FBFF34F8F08BDA5
:10AC70000829F8D0084B40F48072C3F81825C3099E
:10AC8000F1D1064A02EB4112907A0028EBD0937280
:10AC90000846FFF77DFFE6E700700240346C0020B5
:10ACA000C0B275E70C4B03EB4013D98A9A8A521A4B
:10ACB000198B92B28A4228BF0A461969142343436A
:10ACC00003F1804303F51C33C3F80016C3F80426D0
:10ACD000024B03EB8000F3E5346C0020047002406B
:10ACE0002DE9F04FC34BC44AD3F80013002385B0BD
:10ACF0001C4601201D4621FA03F6F6070BD552F833
:10AD0000236046B100FA03F6344342F82350BFF300
:10AD10006F8FBFF34F8F0133192BECD1E7073BD572
:10AD2000B44B0122C3F81425C3F8102500221546A0
:10AD3000930003F1804303F51C330132082A5D6060
:10AD40009D62F5D1AB4B5D629D64C3F85851D3F859
:10AD50000024D3F800140A43C3F80024D3F80023D6
:10AD6000C3F80823A54AC3F80423A54B4FF49272F5
:10AD70000021184682F0C2FA4022028302814FF479
:10AD80008073012101A8CDE901550395ADF8043088
:10AD90008DF80850FEF774FD14F4006F984D08D03C
:10ADA000944BD3F8A8369BB2A5F81631012385F849
:10ADB0001C31A60204F4800736D58E4ED6F8143521
:10ADC00013F4807308D01FB1D6F80034D80702D42A
:10ADD0000820FFF7DDFE0123D6F81025D10540F14C
:10ADE0005D8195F81C319BB1B5F8163100229BB2FC
:10ADF000CDE9012285F81C2103934FF4E0628823FA
:10AE0000012101A8ADF80420ADF80830FEF738FDA7
:10AE10000023CDE90133039301214FF4407301A8CE
:10AE2000ADF80430FEF72CFD002F37D0714BD3F86E
:10AE3000006440F201723240C3F80024F2050DD5DF
:10AE40000121C3F82C150023CDE90133039301A898
:10AE50004FF48063ADF80430FEF712FD77050FD58F
:10AE6000644B0122C3F808259A65D3F8002312F435
:10AE7000001208BFC3F854214FF40012C3F8042392
:10AE8000B0050BD50023CDE90133039301214FF425
:10AE9000A06301A8ADF80430FEF7F2FC21023BD517
:10AEA000544BD3F880E4D3F88424D3F88814D3F82F
:10AEB0008C74D3F89064D3F894045FFA81FCD3F8CF
:10AEC0009814D3F89C341EF07F0F5FFA8EF8D2B23C
:10AED000FFB2F6B2C0B2C9B2DBB201D1052A1BD0B3
:10AEE0004FF0000EADF806E08DF80D004FF4C06E87
:10AEF0008DF80E1001A80121ADF804E08DF808804E
:10AF00008DF809208DF80AC08DF80B708DF80C6053
:10AF10008DF80F30FEF7B4FC3A4B23406BB1BFF312
:10AF20005B8F95F82031BFF35B8F002B40F0BE8024
:10AF3000354B1B68DA0700D500BEDFF8C480DFF8A8
:10AF4000B490DFF8CCB0474600264FF0140A06F163
:10AF50000C0324FA03F3DB07F1B224D50AFB0693B2
:10AF60003A68D3F8083705EB461C12FA83F23A60C8
:10AF7000BCF806E098B273449BB2082E4FEA461222
:10AF8000ACF8063000F09A803B89834240F096800E
:10AF9000BCF80630B8889BB2984240F28F8011B955
:10AFA0005846FFF78DFC0136092E07F12007CED158
:10AFB000164B2340002B00F089800E4BD3F86C74A5
:10AFC000C3F86C74BFF36F8FBFF34F8F14F48064BA
:10AFD00008D0D3F88044D3F880341906C4F3C014E1
:10AFE00040F18D804FF00009DFF808A000264FF0F7
:10AFF000140B0FE000700240007102400514C00104
:10B00000346C0020FCFB1F00F0ED00E000040001A8
:10B010004C70024027FA06F3DA07F0B201D4D6B931
:10B02000CCB10BFB06A3D8F81020D3F8083652FA9F
:10B0300083F2C8F8102005EB4612D18A89B251FA82
:10B0400083F39BB2D382D38AB8F814109BB299428F
:10B0500058D9FFF727FE0136082E08F12008D9D16C
:10B060000024012604F1100327FA03F3DB07E0B202
:10B0700003D47CB9B9F1000F0CD005EB4411630186
:10B08000CA7A002A53D0CA88898892B291424ED98E
:10B09000FFF77EFD0134082CE4D117E0002B7FF48C
:10B0A000B7AE4FF40013C6F80833B1E60023BFF380
:10B0B0005B8F85F82031BFF35B8F3EE72A44D37A5C
:10B0C0003BB91C4B1B68D80700D500BE05B0BDE8D6
:10B0D000F08FD388BB800023D372D2884FF4E06016
:10B0E000CDE9013392B2ADF804008DF8081001A843
:10B0F000012103928DF80930FEF7C2FB53E74FF0B0
:10B10000010971E7D28A00234FF4E06160F07F000B
:10B11000CDE9013392B2ADF804108DF80800012199
:10B1200001A803928DF80930FEF7AAFB93E72B44A0
:10B130009E72AFE7F0ED00E0034B43F602229A87E0
:10B14000002283F83E207047586D002010B4114B48
:10B1500002209A6B83F82C10996883F8300093F8DA
:10B160003C008A1A9A6220B942F205049C8783F84F
:10B170003E0059B152B11A7B5DF8044BD20914BF9D
:10B1800093F82E0093F82F00FEF7DEBA5DF8044B1B
:10B19000704700BF586D002038B5134C0546607BE2
:10B1A00068F00CFE48B942F2077384F83E00A387AA
:10B1B00028460121BDE83840C8E7A268A36B94F88F
:10B1C0002F00D21AB2F5007F28BF4FF4007292B25E
:10B1D00004F14001FEF7EEFB20B9044B1B68DB07CE
:10B1E00000D500BE38BD00BF586D0020F0ED00E076
:10B1F00008B5FFF7A1FFBDE808400121A6E7024816
:10B200004022002182F07AB8586D00200248402286
:10B21000002182F073B800BF586D00202DE9F04185
:10B22000AC4C0D4694F8301001298AB0074600F066
:10B230004281032900F07381002945D194F82F2021
:10B24000AA4201D0012011E01F2B03D12268A24B9A
:10B250009A420ED094F82E00042384F83030FEF782
:10B2600073FA94F82F00FEF76FFA00200AB0BDE8D9
:10B27000F0819A4B23626368A26884F82C10C4E9B9
:10B280000931012384F83030E37BC4E90D2103F058
:10B29000FD0128293FD1E18A49BA89B23AB900298A
:10B2A00000F0038102213846FFF750FF0CE0282B05
:10B2B00027D1207BC009F5D0A1B38A42F2D3282B35
:10B2C00025D13846FFF794FF94F83030022BB9D1DE
:10B2D00094F82E00824B00F07F0203EB420303EB55
:10B2E000D01320339B799B07ACD4A368A26B934205
:10B2F00040F23B81217BC90900F03781FEF724FA37
:10B30000A0E72A2BD8D1207BC009D5D0CAE7384680
:10B31000FFF742FFD8E7A2B1217BC90911D1B2F5ED
:10B32000007F01D90121BEE76E4992B22846FEF79F
:10B3300041FB0028C8D16C4B1B68DC0795D500BECB
:10B3400094E7252B94F80D8006D8192B0ED8032BE3
:10B3500075D0122B3FD093B394F83C30002BE1D141
:10B3600042F20502A28784F83E30DBE71A3B0B2B42
:10B37000F2D801A252F823F025B40200A9B30200CA
:10B3800059B3020059B3020059B3020059B3020085
:10B3900059B3020059B3020059B30200CDB3020001
:10B3A00059B30200BFB30200E17C4046C1F3400341
:10B3B00001F00102090968F004FD002871D194F838
:10B3C0003C30002BC8D1FFF7B7FEC5E70023CDE91D
:10B3D00001330393F3E7454B424E0021CDE90131A0
:10B3E0004FF020381F231022202105A88DF80830A7
:10B3F000CDE9038801AD81F081FFCDF824800FCD28
:10B400000FC60FCD0FC62420C6F80080A268002A00
:10B4100088D0824228BF02466263324994F82E00E7
:10B4200092B284E7404668F0C9FC80F00103DBB2C9
:10B43000DB0543F00303019323640420E6E71222B3
:10B44000002101A881F05AFF94F83C0094F83D10C7
:10B4500094F83E208DF81010F0238DF804304FF052
:10B46000000360F303038DF806300A238DF80B30D8
:10B470008DF8112001AD0FCD1A4E0FC62B68338009
:10B480001B4BB3B14FF40072A6F110014046AFF36D
:10B49000008000239842A38784F83E30FFF65CAF1B
:10B4A000B4D1A368002B7FF43DAF022384F8303081
:10B4B0000AE71220EDE7A56BE27B2B44282AA36361
:10B4C00003D1626B9A42F0D9FBE62A2A12D1FFF728
:10B4D00033FEE8E6586D002055534243555342531E
:10B4E000E16A0020986D0020F0ED00E0008002028B
:10B4F00000000000237BDB0906D142F20502A2878F
:10B5000084F83E30FFF722FED4E90D329A42CCD2C5
:10B510001C4B1B68DA077FF5D7AE00BED4E694F863
:10B520002E20AA427FF4D0AE0D2B7FF4CDAEE37B6C
:10B53000282B09D02A2B14D0134B53B1607B04F174
:10B540000F01AFF3008004E0104B13B1607BAFF349
:10B55000008000230E4994F82F0084F830301F2219
:10B56000E5E6607B68F02CFCF3E79B1AA3620949CF
:10B5700003230D2284F83030FEF71CFA00287FF4F4
:10B5800061AED8E6F0ED00E0000000000000000031
:10B59000586D0020786D0020012973B506461546C8
:10B5A00013D1137803F07F02022A42D16C78012C68
:10B5B0003FD16A88002A3CD13749A88891F83030B9
:10B5C000042BC0B203D1FEF7BFF8012017E091F8B9
:10B5D0002E20904215D1022BF7D18A6B8B689B1AD3
:10B5E0008B62032381F830300D222031FEF7E2F91F
:10B5F0000028EAD1294B1B68DB074AD500BE02B000
:10B6000070BD91F82F40A042DFD1002BDDD1244A3C
:10B6100004F07F0302EB430303EBD41320339A7946
:10B62000D107D2D49B799A07CFD41B491F22204639
:10B63000DCE703F06003202B2BD16B78FE2B13D0BB
:10B64000FF2B26D16B8823BBE9888AB20ABB124B39
:10B65000304699872946C3E90D2283F8302083F8C4
:10B660003E2067F04DFDB0E76B8893B9EC88012C64
:10B670000FD18DF8074068F0A6FB50B1431E8DF83E
:10B6800007300DF1070223462946304667F07CFD5E
:10B690009BE70020B3E700BF586D0020F0ED00E00D
:10B6A000E16A002037B54B79082B02D0002003B0A7
:10B6B00030BD8B79062BF9D1CB79502BF6D1162AD8
:10B6C00005D8174B1B68D907F0D500BEEEE7154C1F
:10B6D0008B7884F82D3004F12E030D78019304F15A
:10B6E0002F03009302231A462944FEF76DF828B968
:10B6F0000B4B1B68DA07D9D500BED8E7002394F8B6
:10B700002F0084F830301F222146FEF753F920B96C
:10B71000034B1B68DB0700D500BE1720C7E700BF3F
:10B72000F0ED00E0586D00208278884202D28378E4
:10B73000934200D07047037818448142F5D943788A
:10B74000042BF2D00B2BF6D1EFE7884202D24378DC
:10B75000934200D1704703781844F6E738B5144691
:10B760001D46884201D3084638BD8378A34202D1E2
:10B77000C378AB42F8D0037804221844FFF7E5FF02
:10B78000EFE710B51446884201D3084610BD837810
:10B7900003F0FD02052A01D0112B02D1C378A34288
:10B7A000F4D0037824221844FFF7CFFFEBE738B535
:10B7B0000A4D1446884201D3084638BD8378112BC0
:10B7C00006D825FA03F3DB0702D5C378A342F4D0E9
:10B7D000037824221844FFF7B8FFEBE7501002006B
:10B7E000C3883BB1027804490B2000FB02121068A9
:10B7F0001844704718467047986F00202DE9F041B3
:10B800000C46FFF7EDFF18B1A278037B9A4205D9E9
:10B81000484B1B68DB073DD500BE3BE02AB9012B36
:10B8200001D9012037E00122A2706FF03F03A37617
:10B830006FF00303E3766FF064032377032300259F
:10B840004FF00108A377082384F808806572A57279
:10B85000E57284F80E80E5732574657484F81D80A4
:10B8600084F81F8084F8208084F8218084F8225096
:10B8700084F823300378B0F80D10194401441844BB
:10B88000FFF795FF88420646C2D08778042F04D080
:10B89000062F05D00020BDE8F08184F80C80657388
:10B8A000E27833799A42B3D81AB9012BB9D8012278
:10B8B000E27030783044FFF764FF8842A8D0D4F8B3
:10B8C00012302BB9042F25D0062F2CD0C4F81230FB
:10B8D000626852B9417E0129A3D8D0F81A2019B95B
:10B8E000D0F81E1091429CD1626042F20F718A42E0
:10B8F0008ED9013B42F21071B2FBF1F21344B3FB5B
:10B90000F2F30233B3F5807F28BF4FF48073C4F89D
:10B91000163086E7B0F80730B0F805205A43737D3B
:10B920005343DB08D2E7B0F80520B0F807305343A3
:10B930001B01F6E7F0ED00E02DE9F843304CA38A57
:10B940000E46002B54D0207B0B2202FB00421268D3
:10B9500013449B788B424BD1D4E907329A423CD2B4
:10B960003046FDF705FE002847D094F85C00216AB8
:10B97000E369D4F82480471A1F44B845454628BFD8
:10B980003D46A8420ED91F4B1D6815F0010501D098
:10B9900000BE00251C49AAB23046FEF70BF8B0B134
:10B9A00001202BE0A369A5EB0009204419444A4675
:10B9B0005C3081F07BFC236AB8454B44236222BF94
:10B9C00094F85D3043F0020384F85D30E2E70D4BFC
:10B9D0001B68DA0711D500BE10E00023C4E9063366
:10B9E00023620A4B002BDBD0617BAFF30080D7E7EB
:10B9F000044B1B68DB0700D500BE0020BDE8F883C0
:10BA0000986F0020F0ED00E0F46F002000000000CF
:10BA10000448002141600160C0F8071050220C303A
:10BA200081F06CBC986F00200448002141600160E7
:10BA3000C0F8071050220C3081F060BC986F0020D5
:10BA40002DE9F04716460B78404A0C460B2101FBC6
:10BA500003231F68238963B13B4400259878FDF7D1
:10BA60008DFE6389258123B13B449878FDF786FEDE
:10BA700065814FF000096088B4F80480C4F8149020
:10BA8000C4E903993844B844827833464146FFF705
:10BA900065FE8045054602D80020BDE8F08790F895
:10BAA00004A0BAF1020F05D9294B1B68DA07F3D5B8
:10BAB00000BEF1E7C31BE38066B1287804F10809F2
:10BAC000054409EB4A0ACA451ED10EB10223637729
:10BAD0000120E2E7637F012BEFD004F11E03314622
