:020000022000DC
:1060000000000420D1790900117A090045890900AE
:10601000157A0900177A0900197A090000000000B2
:10602000000000000000000000000000757809007A
:106030001D7A09000000000095780900217A090006
:106040000D7C0900237A0900195609006D420900E8
:10605000237A0900237A09002D580900237A0900C0
:10606000237A0900237A0900237A0900237A090098
:10607000237A0900237A0900237A0900237A090088
:10608000237A090005760900237A0900237A09009A
:10609000237A0900237A0900D5480900237A0900E8
:1060A000237A0900237A0900237A0900237A090058
:1060B000237A0900237A0900000000000000000094
:1060C000237A0900237A0900237A0900B1800900A4
:1060D000237A0900237A0900237A0900313E090056
:1060E00025560900237A0900237A090000000000E0
:1060F00000000000237A090000000000E180090090
:10610000000000000000000000000000000000008F
:10611000000000000000000000000000000000007F
:10612000000000000000000000000000000000006F
:10613000000000000000000000000000000000005F
:10614000000000000000000000000000000000004F
:10615000000000000000000000000000000000003F
:10616000000000000000000000000000000000002F
:10617000000000000000000000000000000000001F
:10618000000000000000000000000000000000000F
:1061900000000000000000000000000000000000FF
:1061A00000000000000000000000000000000000EF
:1061B00000000000000000000000000000000000DF
:1061C00000000000000000000000000000000000CF
:1061D00000000000000000000000000000000000BF
:1061E00000000000000000000000000000000000AF
:1061F000000000000000000000000000000000009F
:1062000010B5054C237833B9044B13B10448AFF3F0
:1062100000800123237010BD1069002000000000E1
:10622000FC3E0D0008B5034B1BB103490348AFF317
:10623000008008BD0000000014690020FC3E0D0035
:10624000A3F5803A704700BF174B002B08BF134BD4
:106250009D46FFF7F5FF00218B460F461348144A71
:10626000121A87F033F80E4B002B00D098470D4BD5
:10627000002B00D098470020002104000D000D489D
:10628000002802D00C48AFF3008086F0E7FE200023
:10629000290071F0E1FB86F0F9FB00BF0000080067
:1062A0000000000000000000000004201069002031
:1062B0007C060220000000000000000070477047CC
:1062C000817270477047402070472020704710202F
:1062D000704770476FF0180070476FF018007047F4
:1062E0006FF01800704770477047002070476FF0DC
:1062F0001800704700207047BBEE090A704784B051
:1063000004A800E90E006FF0180004B070476FF0A9
:10631000180070476FF0180070477047836841603D
:106320001944C16070470020704700207047183042
:10633000704701207047704720307047084A8B89AA
:1063400092F8300108B1422B08D0012B05D00A3B4E
:10635000012B8CBF0020012070471846704700BFFA
:10636000C87A00204069431E5842584170470020B7
:10637000704790F82C00831E58425841704790F89F
:106380002600831E584258417047002070474069DC
:10639000431E584258417047007B704700207047A9
:1063A000007B70477047024B93F85801704700BF5D
:1063B000C87A0020014B93F849017047C87A002041
:1063C0000020704701207047002070470020704770
:1063D000014B93F862017047C87A0020B0F876004C
:1063E0008A89131A584258417047704770474B6A60
:1063F000032B01BF034B1B68B3F85030838300208D
:10640000704700BFC47B0120F1E7F0E71830704708
:10641000002070470068096803689B681847C0F847
:106420008011704780ED5F0A704700207047006858
:10643000096803689B6818470068096803689B68D7
:1064400018470068096803689B681847C08A8A89EA
:10645000131A584258417047704700207047002077
:106460007047022A06D0032A02D0012A00D1016017
:10647000002070470B680360FAE7F2E7012A08BFC3
:10648000016000207047F9E7F8E7F7E7F6E7F5E77E
:10649000F4E7F3E7F2E7F1E7F0E7EFE7EEE7EDE740
:1064A000ECE7EBE7EAE7E9E7E8E7E7E7E6E7E5E770
:1064B000E4E7E3E7E2E7E1E7E0E7DFE7DEE7DDE7A0
:1064C000DCE7DBE7DAE7D9E7D8E7D7E7D6E7D5E7D0
:1064D000D4E7D3E7D2E7D1E7D0E7CFE7CEE7CDE700
:1064E000CCE7CBE7CAE7C9E7022A06D0032A02D0E5
:1064F000012A00D10160002070470B680360FAE7B1
:10650000F2E7F1E7F0E7EFE7EEE7EDE7ECE77047FA
:10651000704770478278884202D28378934200D0D5
:106520007047037818448142F5D94378042BF2D0A0
:106530000B2BF6D1EFE7884202D24378934200D189
:10654000704703781844F6E738B514461D4688426C
:1065500001D3084638BD8378A34202D1C378AB4249
:10656000F8D0037804221844FFF7E5FFEFE710B5F1
:106570001446884201D3084610BD837803F0FD021B
:10658000052A01D0112B02D1C378A342F4D003789D
:1065900024221844FFF7CFFFEBE738B50A4D144625
:1065A000884201D3084638BD8378112B06D825FAD6
:1065B00003F3DB0702D5C378A342F4D00378242287
:1065C0001844FFF7B8FFEBE750100200C3883BB157
:1065D000027804490B2000FB02121068184470472F
:1065E000184670472C6900202DE9F0410C46FFF752
:1065F000EDFF18B1A278037B9A4205D9484B1B687E
:10660000DB073DD500BE3BE02AB9012B01D90120B3
:1066100037E00122A2706FF03F03A3766FF003030F
:10662000E3766FF064032377032300254FF001081E
:10663000A377082384F808806572A572E57284F850
:106640000E80E5732574657484F81D8084F81F80BE
:1066500084F8208084F8218084F8225084F8233044
:106660000378B0F80D10194401441844FFF795FF62
:1066700088420646C2D08778042F04D0062F05D062
:106680000020BDE8F08184F80C806573E2783379EE
:106690009A42B3D81AB9012BB9D80122E2703078E6
:1066A0003044FFF764FF8842A8D0D4F812302BB9E9
:1066B000042F25D0062F2CD0C4F81230626852B9AE
:1066C000417E0129A3D8D0F81A2019B9D0F81E109C
:1066D00091429CD1626042F20F718A428ED9013B95
:1066E00042F21071B2FBF1F21344B3FBF2F3023346
:1066F000B3F5807F28BF4FF48073C4F8163086E767
:10670000B0F80730B0F805205A43737D5343DB08D7
:10671000D2E7B0F80520B0F8073053431B01F6E785
:10672000F0ED00E001204DF0E8BAFBE7044800215D
:1067300041600160C0F8071050220C3086F0C6BDE1
:106740002C6900200448002141600160C0F8071056
:1067500050220C3086F0BABD2C69002010B50C21F7
:10676000044671F0C1F9204610BD10B5342104462D
:1067700071F0BAF9204610BD33F0D2BB036D1B682F
:106780005A6933F0DCBB024B024819886EF061B8DD
:10679000F27001207CAA0120024B034819886EF098
:1067A00058B800BFF27001207CAA012070B50546E0
:1067B0000C464CB1E1682846FFF7F8FFA668204672
:1067C0006FF0CCFB3446F4E770BD70B505460C465F
:1067D0004CB1E1682846FFF7F8FFA66820466FF045
:1067E000BDFB3446F4E770BD70B505460C464CB1B0
:1067F000E1682846FFF7F8FFA66820466FF0AEFB79
:106800003446F4E770BD70B505460C464CB1E168FE
:106810002846FFF7F8FFA66820466FF09FFB344636
:10682000F4E770BD10B50446006808B16FF096FB40
:10683000204610BD11B108306FF0C4B9704713B5D0
:106840000A4C206840304CF07BFC206800210AF0A4
:10685000BFFB074B01221A7000230193054B01A9CE
:1068600018686FF09DFD02B010BD00BFF47B0120E1
:10687000847B01206C750020E1E7E0E710B5044659
:106880006CF064FB204610BD10B5046844B1201DB7
:106890006CF05CFB20461421BDE8104071F024B977
:1068A00010BD07B500680B680168019301EB031187
:1068B000C3680BB97EF079FE036901AA04309847DA
:1068C00003B05DF804FBECE707B500680B680168EE
:1068D000019301EB0311C3680BB97EF066FE0369F7
:1068E00001AA0430984703B05DF804FB07B50068BF
:1068F0000B68026801930C2101FB0321C3680BB9EB
:106900007EF053FE036901AA0430984703B05DF896
:1069100004FBEBE707B500680B68026801930C21E4
:1069200001FB0321C3680BB97EF03FFE036901AA96
:106930000430984703B05DF804FBEBE7EAE7E9E7CA
:10694000034607B59A680191013A08469A607EF0BD
:1069500053FC019803B05DF804EB6FF0FFBA2DE92A
:10696000F843314CA38A0E46002B54D0207B0B22D7
:1069700002FB0042126813449B788B424BD1D4E94E
:1069800007329A423CD2304603F00CFC002847D034
:1069900094F85C00216AE369D4F82480471A1F4404
:1069A000B845454628BF3D46A8420ED91F4B1D6835
:1069B00015F0010501D000BE00251D49AAB23046E0
:1069C00003F012FEB0B101202BE0A369A5EB000992
:1069D000204419444A465C3086F050FC236AB8458E
:1069E0004B44236222BF94F85D3043F0020384F8E5
:1069F0005D30E2E70D4B1B68DA0711D500BE10E0F1
:106A00000023C4E9063323620A4B002BDBD0617BF1
:106A1000AFF30080D7E7054B1B68DB0700D500BE4E
:106A20000020BDE8F88300BF2C690020F0ED00E0F5
:106A300088690020000000002DE9F04716460B7819
:106A4000404A0C460B2101FB03231F68238963B1D5
:106A50003B440025987803F0ABFC6389258123B182
:106A60003B44987803F0A4FC65814FF000096088EE
:106A7000B4F80480C4F81490C4E903993844B844C5
:106A8000827833464146FFF75FFD8045054602D8D0
:106A90000020BDE8F08790F804A0BAF1020F05D9F4
:106AA000294B1B68DA07F3D500BEF1E7C31BE3806F
:106AB00066B1287804F10809054409EB4A0ACA4579
:106AC0001ED10EB1022363770120E2E7637F012B21
:106AD000EFD004F11E0331466677A66130221846D6
:106AE00086F0F4FB01462046FFF77EFD0028E0D14A
:106AF000CEE76B78052B06D0042BD1D02B781D4424
:106B0000A845F6D8CCE7EB7803F003038EB1012B50
:106B100005D1AA88A369C2F30A029A42B8D32846CB
:106B200003F076FB40B9084B1B68DB07B0D500BE0D
:106B3000AFE7022BF3D0ABE7EB1B29F8023B2B7836
:106B40001D44BCE72C690020F0ED00E0F8B50F68AB
:106B50000E46898813463944BA783846FFF7F4FC64
:106B60008142044601D80020F8BD037D012B05D9E0
:106B7000114B1B68DA07F6D500BEF4E70379B3B111
:106B8000012BF0D10378C5891D444119407A18447E
:106B900005222044FFF7CFFC8142E4D903F038FB03
:106BA00028B9054B1B68DB07DDD500BEDCE7E41B1D
:106BB000F4800120D8E700BFF0ED00E02DE9F047B8
:106BC0001378154603F01F02012A8EB00746884647
:106BD0004AD1DFF80093A988D9F800205FFA81FC38
:106BE0004E46002A00F0E3809478644540F0DF8050
:106BF000C3F3411A13F0600F544603D0012C67D041
:106C000007230BE06B780A2B0BD00B2B25D0B04B56
:106C1000186810F001004FF0070355D189F80930CA
:106C200022E0B8F1010F03D000237372012410E0B9
:106C3000EB88012B16D1B9F806100A442946D27800
:106C40008DF8082002AA6CF083FA044650B189F846
:106C500009A020460EB0BDE8F087B8F1010FE3D1DE
:106C6000EB881BB1FF2373720024F2E7F1885318FD
:106C70001879A0B1525C587AD9891044114419444A
:106C800005221844FFF757FC814205D8904B1B683A
:106C9000D807E7D500BEE5E7807803F089FB4FF021
:106CA000000886F8068086F807806A888949384691
:106CB000FFF74CFF04460028D4D0294638466CF034
:106CC00003FA86F80980C4E700BE89F80930C0E7F6
:106CD0000C0A55D16B881A0A012A0AD0022A3CD024
:106CE0007B4B186810F001004FF00703BBD000BECB
:106CF000B9E76B78812B22D0862B25D0012BEFD1E1
:106D0000B8F1010F0BD1EB88012BABD1724A0123F3
:106D1000294638466CF01CFA002885D1A2E7B8F164
:106D2000020F81D16D4B002B3FF47EAFB17A002072
:106D3000AFF300807072B0FA80F4640989E7B8F1AB
:106D4000010F7FF471AFDEE7B8F1010F7FF46CAF94
:106D5000EB88012B86D1624ADAE76B78812B08D069
:106D6000862BBDD1B8F1010F7FF45EAF5D4A43467B
:106D7000CEE7B8F1010F7FF457AF5B4A0123C7E7B5
:106D8000F388D018D15CC3891944014481427FF64D
:106D90004BAF8378023B052B03D8C378A3423FF463
:106DA00043AF037824221844FFF7C5FBEEE7F089D0
:106DB00000283FF459AF337B0B2202FB03631C68AE
:106DC0002044837863457FF44FAF2B78C3F3411998
:106DD00013F0600F484629D0012876D10C0A74D1EF
:106DE0006B881A0A022A00F0C781062A63D0012A9A
:106DF00066D196F829300BB186F8294095F80190B4
:106E0000B9F1010F00F0878009F17F03DBB2062B97
:106E100056D8A9F18103062B52D8DFE813F0B6014A
:106E20008F008F008F000202A2018F006B780A2B67
:106E30000BD00B2B2AD0264B1C6814F001044FF00A
:106E4000070334D186F8283003E7B8F1010F03D0E7
:106E5000002386F82830E9E6EB88012B40F0F88122
:106E60002248FFF7B3FB002800F0F281C3788DF8C9
:106E7000083002AA4346294638466CF069F90446B0
:106E8000002800F0E58186F82890E2E6B8F1010FCD
:106E900076D16A8815493846FFF7CEFD04460028AA
:106EA00000F0D681294638466CF00EF9EBE700BEBB
:106EB00086F82830D8E66B78812B19D0862B24D021
:106EC000034B1B68DB0700F1C1810723F0E700BF1C
:106ED000F0ED00E02C690020366900200000000081
:106EE000B52C0B00B42C0B0035690020386900204C
:106EF000B8F1010FACD1AF4A4346294638466CF091
:106F000027F90028A4D1FF23D2E7B8F1010F9FD1C0
:106F1000A94A0123F1E7B8F1010F02D1A74A3023B2
:106F2000EBE7B8F1020F93D1A449A1F11E00FFF7DE
:106F30005BFB044600288BD1082383E7B8F1010FDF
:106F400086D1EB88002B00F083819C4B02AA03F1D1
:106F5000300E1446186859689446ACE803000833AC
:106F600073456246F6D19DF80A20BABBB9F1830F8A
:106F700009D0B9F1870F2FD0B9F1820F2CD008209A
:106F800086F82800D7E68E48FFF720FB10B1037B78
:106F90008DF80A304FF001130121CDE904130023CD
:106FA000ADF818304FF6C043ADF8223040F29B13D5
:106FB000ADF8243040F20313ADF82630814B0A932C
:106FC00022463023294638466CF0C2F80446002891
:106FD00000F03E81002335E70123D9E79DF80BA09F
:106FE0000192BAF1000F48D17548FFF7EFFA019A04
:106FF00028B9754B1B68DA07C1D500BEBFE7037817
:10700000B0F80D10194401441844FFF7C6FAB9F15D
:10701000830F804607D0B9F1870F19D0B9F1820FDD
:10702000ADD1012200E002798DF80B2098F8000024
:107030004044FFF79CFA98F80230042B11D0062B3D
:107040009DD1B0F80520B0F8073053431B0110E084
:107050008378042B03D0062B91D18279E4E7827DDB
:10706000E2E7B0F80730B0F805205A4398F8153039
:107070005343DB08CDF81A30A2E7DDF80C80B8F1F5
:10708000000F9DD14E48FFF7A1FA019A0028B0D019
:107090000378B0F80D10194401441844FFF77DFA45
:1070A000037852461844A9F18209FFF760FAB9F152
:1070B000050F3FF664AF01A353F829F009710200F0
:1070C000D5700200317102007F6F02007F6F0200F5
:1070D00023710200437EA3B1053300EB8303D3F891
:1070E0000280D0F81A3042F21072B3FBF2F3CDF8FE
:1070F0000C80B8F1000F22D1ADF81E80ADF82080D1
:107100005EE7D0F81E80ECE7437E3BB1053300EB31
:107110008303D3F80230D0F81A80E4E7D0F81E30A9
:10712000F9E7D0F8158042F21073B8FBF3F3DEE70D
:10713000437E13B9D0F82280F5E70023D7E7DDF8C6
:107140001A2043B9931CB3F5807F28BF4FF4807396
:10715000CDF81E3034E7013A1A44B2FBF3F30233A0
:10716000F1E7B8F1010F7FF473AEEB88012B7FF4E8
:10717000CAAE4346154AC0E66B78852B51D00DD870
:10718000012B25D0812B7FF49BAEB8F1010F7FF44A
:107190005FAEEB88002B7FF4C1AEB4E6862B7FF4A4
:1071A0008FAEB8F1010F7FF453AEEB88012B7FF463
:1071B000AAAEDFE754690020B42C0B00566900200A
:1071C0003869002001010008F0ED00E0B52C0B004B
:1071D000B8F1010F3FF4A2AEB8F1020F7FF438AE60
:1071E0001C4A1146A2F11E00FFF7FEF9194A044697
:1071F00000283FF4A1AE336C7362174B33B1717B3F
:10720000307BAFF3008000287FF422AE0023C6E974
:10721000063333620223A6F85C304FF48073338563
:1072200017E5B8F1010F7FF413AEEB88022B7FF462
:107230006AAE3022ADF80820294602AA38466BF023
:1072400087FF044600287FF4C5AE5CE600BE3CE63E
:10725000FF2095E656690020000000002DE9F04F60
:107260002DED028B4B790E2B08EE100A83B00D46E4
:10727000174605D0002003B0BDEC028BBDE8F08FAF
:107280008B79012BF6D1CB79012BF3D12D4CD4F88E
:107290000080B8F1000F4ED12160A2802146424605
:1072A000FFF754FC0028E5D0E28823682F441344FC
:1072B0003946284693F814A0FFF72CF904F1080B7F
:1072C00006465FFA88F9CA4503D8751BA8B2A5809F
:1072D000D1E7E2897ABB731B0BF8012B39463046A4
:1072E00022730192E381009384F80D90FFF712F965
:1072F000019A009B84F82920411B06462182B9F19E
:10730000000F02D008F10108DBE7BAF1010FF9D153
:1073100015FA83F015FA81F182785346FFF714F9D4
:107320008142EFD1084918EE100A4A46FFF784FB64
:107330000028E7D19EE7054B1B68DB079AD500BE06
:1073400098E700BF2C69002038690020F0ED00E0CC
:1073500038B504680546A54207D0A0680368002137
:107360009B68984710B92468F5E7002038BDF0B550
:1073700001F1200C00254FF0000E51F8043B05F000
:1073800001055E1B52F8043B6EEB4E07F41A67F1E1
:107390000005614540F8044BEFD105F00100F0BD58
:1073A00008B5D0E900031B1A6FF00040834202D1F8
:1073B00007487EF0D5F8012B1A4638BF01229B18EA
:1073C00004D2002BACBF18466FF0004008BD00BFD0
:1073D000052C0B0008B5D0E900031B1A9810094BC7
:1073E00043430948834202D108487EF0B9F8012B93
:1073F0001A4638BF01229A1802D2904228BF10467E
:1074000008BD00BFABAAAAAAAAAAAA0A052C0B000B
:10741000034610B41B681C68084611462CB1A446EC
:107420009B685DF8044B0122604702205DF8044B25
:10743000704710B548B1046954B184680123A0476E
:10744000002818BF6FF0020010BD6FF00A00FBE7C4
:107450006FF00400F8E720B1024B800143F0010314
:107460001847704720300B00F5E7F4E7A4DF7047BA
:10747000A3DF7047B2DF7047B1DF7047B0DF7047FE
:1074800011DF70473DDF70473CDF704763DF7047B7
:1074900062DF7047A8DF704786DF704785DF70477F
:1074A00081DF704746DF70478ADF70477ADF7047B9
:1074B000A0DF7047007D7047407C7047007D7047BB
:1074C000B5DF704790DF70478FDF7047AEDF7047E2
:1074D000ADDF7047ACDF7047ABDF7047AADF7047A6
:1074E00075DF704774DF704700231A4619466EF047
:1074F0008FBE4FF0FF316EF0F7BF30B5294C054617
:107500009DB0206DFFF7F5FF94F84C3001952546AE
:107510007BB1254801AB02AA06A906F05FFE04462E
:1075200078B1286DFFF7E0FFB4FA84F040091DB090
:1075300030BD04F10C0006F0CCFA04460028E8D077
:10754000EFE79DF80C30222B16D0174802AA06A9A7
:1075500006F006FD04460028E3D19DF80C30222BEE
:10756000DFD1114806AA12A906F0E0F9041ED8DB03
:107570000BD10E484CF04EFC0B4804AA11A905F0A3
:107580006CFD04460028E0D0CBE71A9B0F931B9BB1
:107590001093002304481A4606A906F065FB04462A
:1075A000BFE700BFE0710020EC7100201F2C0B0032
:1075B00012DF704738B5437A04460D460BB941F0E7
:1075C000CCFF20460322802141F060FFE27A204672
:1075D0002A43812141F05AFF25732046BDE83840F7
:1075E00041F06BBF38B5437A04460D460BB941F004
:1075F000B4FF20460322802141F048FF227B204631
:107600002A43812141F042FFE5722046BDE838401F
:1076100041F053BF38B515461A4650B1C368AB4266
:107620000AD344682B46A047002818BF6FF0020019
:1076300038BD6FF00A00FBE76FF00400F8E710B404
:107640000446084611461A4623685C6824B1A446DD
:107650009B685DF8044B604702205DF8044B70475F
:1076600013B5044600213DF0F0FC012301AA0621D8
:107670002046FFF7E4FF50B99DF8043001AA60F3FB
:107680004513062120468DF80430FFF7C1FE02B0F5
:1076900010BD37B504460D4600213DF0D6FC012350
:1076A00001AA06212046FFF7CAFF50B99DF8043011
:1076B00001AA65F38613062120468DF80430FFF7F2
:1076C000A7FE03B030BD38B5437C04460D4673B108
:1076D00020463BF073FE227A657220462A43A121A0
:1076E0003BF010FE2046BDE838403BF01CBE03498D
:1076F0003BF02CFE0028EBD138BD00BF408A0120B2
:1077000038B5437C04460D4673B120463BF056FE27
:10771000627A257220462A43A1213BF0F3FD2046E0
:10772000BDE838403BF0FFBD02493BF00FFE0028AA
:10773000EBD138BD408A01201FB504688DF80C10CC
:10774000ACB103230022CDE9003203AB012219467C
:10775000204608F082FB9DF80D309DF80C001B02BE
:1077600043EA00439DF80E00184304B010BD032304
:10777000009303AB01221946406808F077FAEAE764
:107780001FB504688DF80C108CB102230022CDE9DE
:10779000003203AB01221946204608F05EFB9DF83B
:1077A0000C009DF80D3043EA002004B010BD022308
:1077B000009303AB01221946406808F057FAEEE740
:1077C00008B5FFF7DDFF40BA80B208BD1FB50468F9
:1077D0008DF80C1064B100230122CDE9002303AB26
:1077E0001946204608F039FB9DF80C0004B010BD86
:1077F0000122009203AB1946406808F037FAF3E71C
:107800001FB504688DF80D2064B10023CDE9003365
:107810008DF80C100123022203A9204608F0EDFA8E
:1078200004B010BD01F07F0100948DF80C102346C8
:10783000022203A9406808F039FAF1E70078C0F3A2
:10784000C20300F007029B0043EA421343EA901090
:1078500070471FB544688DF80C10ACB103230022AB
:10786000CDE9003203AB01221946204608F0F5FAB3
:107870009DF80D309DF80C001B0243EA00439DF873
:107880000E00184304B010BD0323009303AB012284
:107890001946806808F0EAF9EAE71FB544688DF8F0
:1078A0000C109CB102230022CDE9003203AB01226F
:1078B0001946204608F0D1FA9DF80C309DF80D00CD
:1078C00040EA032040BA80B204B010BD0223009306
:1078D00003AB01221946806808F0C8F9ECE71FB530
:1078E00044688DF80C1064B100230122CDE9002317
:1078F00003AB1946204608F0B0FA9DF80C0004B01E
:1079000010BD0122009203AB1946806808F0AEF961
:10791000F3E71FB544688DF80D2064B10023CDE96D
:1079200000338DF80C100123022203A9204608F031
:1079300064FA04B010BD01F07F0100948DF80C10C2
:107940002346022203A9806808F0B0F9F1E7037822
:10795000642223F0020303704068B0FBF2F0B0FB36
:10796000F2F302FB1300C0B27047037C0BB9037043
:107970007047836843600378C16043F0030303707A
:10798000002303747047037819B143F004030370B4
:10799000704703F0FB03FAE74BDF704733DF7047B4
:1079A00032DF7047BFF34F8F0549064BCA6802F4B8
:1079B000E0621343CB60BFF34F8F00BFFDE700BF12
:1079C00000ED00E00400FA0508B16EF0C7BA704798
:1079D00010B5044615F0CEFF2388838110BD0B4BF4
:1079E00010B51C680DF040F8236801461B6820465E
:1079F0009847044640B119F057FE28B194F82D304D
:107A000013B104F12D0010BD0148FCE7D48800201B
:107A1000232C0B00094B10B51C6864B160680DF095
:107A20000DF838B194F8600194F86A3198422CBF8F
:107A30000020012010BD2046FCE700BF20250120CA
:107A4000064B187900F0FB03022B04D0A0F10B03C6
:107A50005842584170470120704700BFA085002060
:107A600038B5044608200D4670F038F82B6843609E
:107A700023680360206038BD044B93F8693013B16C
:107A8000034BD86870470068704700BFA08500208E
:107A90004C880020044B93F8693013B1034B5868AD
:107AA00070470068704700BFA08500204C88002008
:107AB0002DE9F041064688461546174604464445DA
:107AC00009D0214638467EF059F820467DF06CFFFB
:107AD00018341837F3E7A01BC4080448444324F0C3
:107AE0006044182000FB0450BDE8F081ABAAAA0A4C
:107AF00008B16EF033BA7047836810B504462BB1F5
:107B00000322014698470023C4E90233204610BDF2
:107B100010B5044600687DF0DBFB2060204610BDF8
:107B20008B6873B5164604460D1D01225BB13068A3
:107B30001A69904234BF9868D8681D4634BF012244
:107B400000220346F2E7019552B1CA68AA4204D165
:107B5000C4E90035204602B070BD01A8FFF7D8FF88
:107B6000019A3368116999424FF00003F0D3C4E9D8
:107B70000023EFE770B505460C464CB1E168284696
:107B8000FFF7F8FFA66820466EF0E8F93446F4E700
:107B900070BD10B5044600687DF074FB206020467F
:107BA00010BD38B504460068844204D005686EF004
:107BB000D5F92846F8E738BD70B5046805460E4685
:107BC000AC4207D0A068036831469B68984710B95B
:107BD0002468F5E7002070BD70B5046805460E46C0
:107BE000AC4207D0A068036831469B68984710B93B
:107BF0002468F5E7002070BD08B5054B984201D90F
:107C00007DF0A8FC0C235843BDE808406FF066BF28
:107C1000AAAAAA0A08B16EF0A1B970478B6873B519
:107C2000164604460D1D01225BB130881A8A904227
:107C300034BF9868D8681D4634BF0122002203462D
:107C4000F2E7019552B1CA68AA4204D1C4E90035ED
:107C5000204602B070BD01A8FFF75AFF019A338891
:107C6000118A99424FF00003F0D3C4E90023EFE7F3
:107C70008B6873B5164604460D1D01225BB1308832
:107C80001A8A904234BF9868D8681D4634BF0122D2
:107C900000220346F2E7019552B1CA68AA4204D114
:107CA000C4E90035204602B070BD01A8FFF730FFDF
:107CB000019A3388118A99424FF00003F0D3C4E946
:107CC0000023EFE770B505460C464CB1E168284645
:107CD000FFF7F8FFA66820466EF040F93446F4E757
:107CE00070BD0368013B13F8012FFF2A03D08A42BD
:107CF000F9D1012070470020704710B50138029C6F
:107D00000E287DD8DFE800F0587C36281A14520877
:107D100044676A6D73777A00DFED3F7A9FED3F7AB3
:107D2000002908BFF0EE477AC2ED007A05225BE039
:107D3000DFED3B7A9FED3B7A0029F2E7DFED387A01
:107D40009FED387A002908BFF0EE477AC2ED007A3D
:107D50000522227008223CE0DFED317A9FED317A76
:107D6000002908BFF0EE477AC2ED007A05222270A2
:107D700009222EE0DFED2A7A9FED2A7A002908BF3A
:107D8000F0EE477AC2ED007A052222700A2220E046
:107D9000DFED217A9FED217A002908BFF0EE477AC6
:107DA000C2ED007A082222700B2212E0DFED1E7A6B
:107DB0009FED1E7A0029F0E7DFED1B7A9FED1B7A1D
:107DC000002908BFF0EE477AC2ED007A082222703F
:107DD0000C221A7010BD16491160C7E714491160D2
:107DE000D2E714491160062222700722F1E71149F7
:107DF00011600622ADE71049116097E70E49F7E7D9
:107E0000DFED077A9FED077A002908BFF0EE477A89
:107E1000C2ED007A0522C6E70020CB440000FA43F9
:107E200000204B4400007A430020CB430000FA427C
:107E30000000FA4200007A429A9979411FB5002366
:107E4000039300238DF80B308DF80A300DF10A03EF
:107E5000009303AA0DF10B03FFF74FFF9DED030AFB
:107E600005B05DF804FB38B504460C200D466FF0F4
:107E700035FE2B68836021467DF0B7F9A368013396
:107E8000A36038BD38B504460C200D466FF026FEC1
:107E90002B68836021467DF0A8F9A3680133A360B5
:107EA00038BDF8B50D460168044606468C420FD031
:107EB0008A682B680F689A4208D101F108039D4235
:107EC00003D02046FEF73CFD00E00E463946EDE7C4
:107ED000B44205D031462046BDE8F840FEF730BD3B
:107EE000F8BDF8B50D460168044606468C420FD031
:107EF0008A682B680F689A4208D101F108039D42F5
:107F000003D02046FEF71CFD00E00E463946EDE7A3
:107F1000B44205D031462046BDE8F840FEF710BD1A
:107F2000F8BD2DE9F047D0E90487436AD0E902A9FA
:107F300004463D1D1E1DAE4204D955F8040B6EF0DB
:107F40000DF8F8E7C4E906A9C4E90887BDE8F08799
:107F50002DE9F047D0E90487436AD0E902A9044635
:107F60003D1D1E1DAE4204D955F8040B6DF0F6FF01
:107F7000F8E7C4E906A9C4E90887BDE8F087036803
:107F800070B5044663B1436A45691E1DAE4204D90B
:107F900055F8040B6DF0E2FFF8E720686DF0DEFFA6
:107FA000204670BD036870B5044663B1436A4569F5
:107FB0001E1DAE4204D955F8040B6DF0CFFFF8E753
:107FC00020686DF0CBFF204670BD50F8183B83420F
:107FD00002D018466DF0C2BF704710B50446FFF7D7
:107FE000E0FD0023C4E90044A36010BDB0F1005FD0
:107FF00008B501D37DF0AEFABDE8084080006FF00F
:108000006DBD08B16DF0AABF7047026962B18368A7
:1080100050F82310013303F0010348BF5B42013ADB
:1080200083600261084670471146FBE7826A10B51B
:1080300082B1036A50F823400133594201F007012D
:1080400003F0070302F1FF3258BF4B420362826222
:10805000204610BD1446FBE7026962B1836850F800
:108060002310013303F0010348BF5B42013A8360F0
:108070000261084670471146FBE7D0F8882010B52A
:108080009AB1D0F8803050F823400133594201F0C2
:108090001F0103F01F0302F1FF3258BF4B42C0F82B
:1080A0008030C0F88820204610BD1446FBE701460A
:1080B000014815F09DBC00BF10B400202DE9F34726
:1080C000CB68DFF8649001930E1D07460C463546D9
:1080D0004FF0FF38DDF804A0564510D0DAF8101044
:1080E000D9F80430994206D038460CF0CEFA8045D3
:1080F00084BF5546804601A8FFF74BFDEAE7AE4234
:1081000010D001A80195FFF744FD314628467DF0C7
:108110003DF96DF023FF6369013B6361012002B00B
:10812000BDE8F0870020FAE7907E00202DE9F347B4
:10813000CB68DFF8649001930E1D07460C46354668
:108140004FF0FF38DDF804A0564510D0DAF81010D3
:10815000D9F80430994206D038460CF096FA80459A
:1081600084BF5546804601A8FFF713FDEAE7AE42FB
:1081700010D001A80195FFF70CFD314628467DF08F
:1081800005F96DF0EBFE6369013B6361012002B00C
:10819000BDE8F0870020FAE7907E00202DE9F34744
:1081A000CB68DFF8649001930E1D07460C463546F8
:1081B0004FF0FF38DDF804A0564510D0DAF8101063
:1081C000D9F80430994206D038460CF05EFA804562
:1081D00084BF5546804601A8FFF7DBFCEAE7AE42C4
:1081E00010D001A80195FFF7D4FC314628467DF058
:1081F000CDF86DF0B3FE6369013B6361012002B00D
:10820000BDE8F0870020FAE7907E00202DE9F347D3
:10821000CB68DFF8649001930E1D07460C46354687
:108220004FF0FF38DDF804A0564510D0DAF81010F2
:10823000D9F80430994206D038460CF026FA804529
:1082400084BF5546804601A8FFF7A3FCEAE7AE428B
:1082500010D001A80195FFF79CFC314628467DF01F
:1082600095F86DF07BFE6369013B6361012002B00C
:10827000BDE8F0870020FAE7907E00208B6873B598
:10828000164604460D1D01225BB130681A69904202
:1082900034BF9868D8681D4634BF012200220346C7
:1082A000F2E7019552B1CA68AA4204D1C4E9003587
:1082B000204602B070BD01A8FFF72AFC019A33687E
:1082C000116999424FF00003F0D3C4E90023EFE7AE
:1082D0008B6873B5164604460D1D01225BB13068EC
:1082E0001A69904234BF9868D8681D4634BF01228D
:1082F00000220346F2E7019552B1CA68AA4204D1AE
:10830000C4E90035204602B070BD01A8FFF700FCAB
:10831000019A3368116999424FF00003F0D3C4E920
:108320000023EFE78B6873B5164604460D1D012246
:108330005BB130681A69904234BF9868D8681D46AE
:1083400034BF012200220346F2E7019552B1CA6808
:10835000AA4204D1C4E90035204602B070BD01A88C
:10836000FFF7D6FB019A3368116999424FF0000379
:10837000F0D3C4E90023EFE78B6873B516460446D3
:108380000D1D01225BB130681A69904234BF9868B4
:10839000D8681D4634BF012200220346F2E701954A
:1083A00052B1CA68AA4204D1C4E90035204602B0DD
:1083B00070BD01A8FFF7ACFB019A336811699942BF
:1083C0004FF00003F0D3C4E90023EFE730B5031DFD
:1083D000826818463AB115690C68A5422ABF104652
:1083E000D2689268F6E7834204D009680269914234
:1083F00038BF184630BD30B5031D826818463AB103
:1084000015690C68A5422ABF1046D2689268F6E743
:10841000834204D009680269914238BF184630BDD2
:1084200030B5031D826818463AB115690C68A5423B
:108430002ABF1046D2689268F6E7834204D00968E2
:108440000269914238BF184630BD30B5031D8268BD
:1084500018463AB115690C68A5422ABF1046D26881
:108460009268F6E7834204D009680269914238BFF6
:10847000184630BD37B54B690192272B05460C468F
:108480000AD901A92046FFF7E0FF231D834203D14B
:1084900021462846FFF7BAFE03B030BD10B581680B
:1084A0000446FEF783F90023221DC4E90322A360DA
:1084B000636110BD10B581680446FEF786F900239C
:1084C000221DC4E90322A360636110BD10B5816859
:1084D0000446FEF789F90023221DC4E90322A360A4
:1084E000636110BD10B581680446FEF78CF9002366
:1084F000221DC4E90322A360636110BD2DE9F84386
:1085000000F10409846805464E46ECB12369086809
:10851000834204D2E368344626461C46F5E7A36846
:10852000FAD8E26843B1196988428ABFD968996864
:1085300023461C460B46F5E73AB11369984236BF0D
:108540001646D2689268F7E73446EB68D5F814808F
:10855000A34209D1B14507D12846FFF7C3FF686997
:10856000A8EB0000BDE8F883A642F8D020467CF0D6
:108570009CFE4946074620467CF008FF6DF0EEFC65
:108580006B69013B6B613C46EEE710B50446002089
:1085900023F0F4FDA368C01A20EAE07010BD08B112
:1085A0006DF0DCBC7047B0F1005F13B501D37CF017
:1085B000D1FF8200104601926FF090FA019A0021DB
:1085C000044684F083FE204602B010BD42680B468C
:1085D00004318A4210B5044604D01846521A84F079
:1085E0005BFE03466268043A6260184610BD814231
:1085F00010B51346A1EB000405D0014622461846EB
:1086000084F04AFE0346181910BD38B50346D3E975
:108610000035ED1A6FF06043AC10A3EBA5058D4259
:10862000104601D27CF09CFFA14238BF2146601861
:1086300003D2984228BF184638BD1846FCE708B157
:108640006DF08CBC704710B504460068FFF7F7FF6B
:10865000204610BD08281BD00A281CD010281DD089
:1086600015281ED01F281FD02A2820D03E2821D010
:10867000C82822D0B0F5C87F22D0B0F5487F22D0DC
:10868000B0F5C86F22D007EE900AB8EE670A7047BF
:108690009FED100A70479FED100A70479FED0F0A7B
:1086A00070479FED0F0A70479FED0E0A70479FEDD0
:1086B0000E0A70479FED0D0A70479FED0D0A704737
:1086C0009FED0C0A70479FED0C0A70479FED0B0A57
:1086D000704700BF9A99F940666626419A99794198
:1086E0006666A6410000FA41CDCC264200007A42DF
:1086F00000204B430020CB4300204B440020CB44C0
:1087000010B103685B681847704710B103685B6875
:108710001847704710B103681B691847704710B1BC
:1087200003685B681847704770B505460C464CB146
:10873000E1682846FFF7F8FFA66820466DF00EFCBA
:108740003446F4E770BD70B5046805460E46AC4289
:1087500007D0A068036831469B68984710B9246821
:10876000F5E7002070BD2DE9F84FD0E90087A7EBB1
:108770000804A310234C5C43234B9C4206468946C5
:10878000934602D121487CF0EBFE012C224638BFF3
:108790000122A418A1EB080531D244B19C4228BFA4
:1087A0001C460C2060436FF099F9824600E0A24617
:1087B0009BE807000AEB0503002D83E8070004DDB2
:1087C0002A464146504684F067FDA7EB09070C3561
:1087D000002F554404DD3A464946284684F04EFDB4
:1087E0003D44B8F1000F02D040466DF0B7FB0C20BD
:1087F00000FB04A4C6E900A5B460BDE8F88F1C46E0
:10880000CFE700BFABAAAAAAAAAAAA0A052C0B0006
:108810002DE9F84F064689469346FEF7C1FDD6E995
:1088200000A8071EA9EB0A0428D001DA7CF092FE0A
:108830006FF054F905469BF800302B55002C04DDF1
:1088400022465146284684F027FDA8EB090801344A
:10885000B8F1000F2C4404DD42464946204684F01E
:108860000DFD4444BAF1000F02D050466DF076FB86
:10887000C6E900543D44B560BDE8F88F3D46DAE7EF
:1088800010B50C1A002C134605DD01462246184689
:1088900084F002FD0346181910BDB0F1005F08B561
:1088A00001D37CF057FEBDE8084080006FF016B998
:1088B00008B16DF053BB7047B1F1005FF8B50446E5
:1088C0000E4602D310487CF04BFE026883689B1A68
:1088D000B1EBA30F14D94768BF1A91B10846FFF74F
:1088E000DCFF05462A46D4E90001FFF7C9FF2068EE
:1088F000FFF7DEFF2F44256005EB86056760A56066
:10890000F8BD0D46EEE700BF272C0B002DE9F8431C
:10891000D0E901439C420746894607D00B6844F8DA
:10892000043B446078680438BDE8F883D0F80080E0
:108930006FF06042A4EB0804B2EBA40F4FEAA4036B
:1089400002D116487CF00CFE012B1D4638BF0125D4
:10895000ED1821D23DB1954228BF1546A8006FF011
:10896000BDF8064600E02E46D9F800303351002C01
:1089700004DD22464146304684F08EFC0434344403
:10898000B8F1000F02D040466DF0E8FA06EB85051D
:10899000C7E90064BD60C5E71546DFE7052C0B009D
:1089A00038B50346D3E90035ED1A6FF06043AC10DB
:1089B000A3EBA5058D42104601D27CF0D1FDA1426A
:1089C00038BF2146601803D2984228BF184638BDE8
:1089D0001846FCE72DE9F84F05460F469146012160
:1089E000134AFFF7DDFFD5E9008A0646A7EB080B1F
:1089F000D8B1FFF752FF0446D9F8003044F80B30E5
:108A0000224639464046FFF73BFF5146021D384695
:108A1000FFF736FF07464046FFF74AFFC5E9004724
:108A200004EB8604AC60BDE8F88F0446E4E700BFC1
:108A3000052C0B00D0E90032934218BF4360704709
:108A400010B504460068FFF733FF204610BD30B56F
:108A50000D68836885B0D0E9004205604D684560C7
:108A600003938D6885600023C1E900338B6001A802
:108A7000CDE90142FFF7E4FF05B030BDD0E90023A6
:108A80009A4209D1C3681A1F53F8043C436003F5A6
:108A9000FC73C260836003600368183B0360704727
:108AA00008B5054B984201D97CF054FD1823584372
:108AB000BDE808406FF012B85555550513B50B4683
:108AC0000246D0E900016C4684E8030093E8030005
:108AD00082E8030094E8030083E803009868916843
:108AE00090609960D168D868D060D96002B010BD3C
:108AF00010B50378DB07044604D56DF0DDF9E368B3
:108B0000C01A10BD4FF0FF30FBE708B5064B074A0F
:108B10001868074900F6187069F0FAFDBDE80840CA
:108B20000E2012F0C1BF00BF187F0120372C0B00B0
:108B3000502C0B0070B5046805460E46AC4207D0B9
:108B4000A068036831469B68984710B92468F5E728
:108B5000002070BD10B5D0E90043144AE31ADB10C1
:108B600002FB0312002A1BDB142A04DC182303FB7C
:108B70000141016010BD152392FBF3F3C16801EBC5
:108B8000830451F82310C46001F5FC74846015243B
:108B900004FB1323182202FB031341600360E9E77F
:108BA000D3431521B3FBF1F3DB43E7E7ABAAAAAA52
:108BB000CA68C3689B1AD0E90020121A07489B10A4
:108BC000D210424310B5013B152404FB03238A68ED
:108BD0000968521AD21000FB023010BDABAAAAAA33
:108BE0002DE9F04704460F4600F108011830FFF761
:108BF000DFFF3C4B984202D13B487CF0B1FC626AFB
:108C000020686368111AA3EBA101012925D86169C5
:108C1000A2EB01084FEAA806B51CB3EB450F3CD9FF
:108C20005D1B6D0800EB8505131DA942A3EB010236
:108C30002CD9994202D0284684F02EFB2B68E360A1
:108C400003F5FC73236105EB0803636255F80830F4
:108C5000E36103F5FC73656123624FF4FC70656AA0
:108C60006EF03CFF68603D460FCDA6690FC6636A93
:108C700095E803001A1D5B6886E80300626203F54D
:108C8000FC72E3612262A361BDE8F0879942D5D00E
:108C900008F10400801A2844CEE703F10209012BF1
:108CA0002CBF994409F10109B9F1005F01D37CF0AF
:108CB00051FC4FEA89006EF011FF626A6169A9EB0D
:108CC000050504326D089142824600EB850503D00C
:108CD000521A284684F0E0FA20686DF03FF9C4E9A2
:108CE00000A9ABE755555505562C0B0073B5044646
:108CF00016460D4619B912B10D487CF02EFC731BB7
:108D00000F2B019307D9002201A920467CF02AFEEF
:108D1000019B2060A3603246294620687CF0B2FEA9
:108D2000019B226863600021D15402B070BD00BF76
:108D3000862C0B00FFF7DABF036870B5044663B1F9
:108D4000436A45691E1DAE4204D955F8040B6DF007
:108D500005F9F8E720686DF001F9204670BD036859
:108D6000826818339342036008D1C3681A1D5B6898
:108D7000C26003F5FC72436082600360704744DFA9
:108D8000704743DF704742DF7047064B1868043B6B
:108D90001B68082B04D103288CBF002001207047DA
:108DA0000020704734010010024B1B68DB0700D520
:108DB00000BE7047F0ED00E0034B1B68DB0700D5F9
:108DC00000BE0020704700BFF0ED00E037B504465C
:108DD000142001916EF082FE0199054618F098FD6D
:108DE000256003B030BD022A70B5054607D0032ABE
:108DF00013D0012A01D10B680360002070BD0C68FC
:108E000014206EF06BFE2146064651F8043B40F8F4
:108E1000043B17F01DFA2E60EFE7FDF735FDECE798
:108E2000E1E7022A70B5054607D0032A13D0012ACC
:108E300001D10B680360002070BD0C6814206EF037
:108E40004DFE2146064651F8043B40F8043B17F01E
:108E5000FFF92E60EFE7FDF717FDECE7022A70B58A
:108E6000054607D0032A13D0012A01D10B680360FD
:108E7000002070BD0C6814206EF030FE21460646BE
:108E800051F8043B40F8043B17F0E2F92E60EFE79D
:108E9000FDF7FAFCECE7E1E7022A70B5054607D0DA
:108EA000032A13D0012A01D10B680360002070BD92
:108EB0000C6814206EF012FE2146064651F8043B61
:108EC00040F8043B17F0C4F92E60EFE7FDF7DCFC37
:108ED000ECE7E1E7E0E7DFE71FB50446684617F097
:108EE000B7F921466846FFF7E9FD68466AF02EF8B3
:108EF000204604B010BD1FB500F11801684617F0F8
:108F0000B6F96846FFF7BAFD009805B05DF804FBB6
:108F1000014B93F858017047C87A0020014B93F831
:108F200049017047C87A0020014B93F862017047ED
:108F3000C87A00202DE9F041DFF8C883C44BC54D45
:108F4000C54E404694B0442240F80C3B002100241A
:108F500084F0BCF9C14BC8F8083008F1540188F816
:108F6000044001206DF0D8F9BD4BC8F85000C8F896
:108F70000030BC4ABC4940467CF032F9BB48B94A93
:108F8000BB49C0F884404FF40053A0F88030B94B7F
:108F9000C0F88830A0F89C407CF022F9B648B14A6D
:108FA000B6490480C0E903444460047244617CF023
:108FB00017F9B34BAE610822C3E901441A70DC60B3
:108FC0001C82B04BB04A1A600127B04ADA601F71A8
:108FD0009C601C8219232B614FF47A732B62C5F8B5
:108FE0002880C5E90055C5E90C44AC60AC81AC7380
:108FF000AC82EC6185F82C408022214605F17C0092
:1090000085F8384085F8784084F060F98822214658
:1090100005F1FC0084F05AF9924A9D4928467CF0FB
:10902000DFF89C488F4A9C498460C0E900007CF0CE
:10903000D7F89A488B4A98498460C0E900007CF0D0
:10904000CFF89748874A94498460C0E900007CF0D3
:10905000C7F8944868F084FC824A934991487CF0B0
:10906000BFF84FF48E706EF039FD05462022214680
:10907000043084F02BF96C621022214605F128009F
:1090800084F024F92122214605F1380084F01EF9EC
:109090002022214605F1590084F018F920222146AA
:1090A00005F1790084F012F92022214605F199009A
:1090B00084F00CF92022214605F1B90084F006F96C
:1090C0002022214605F1D90084F000F92022214612
:1090D00005F1F90084F0FAF806F124032B60734BD4
:1090E00073481D6006F16808724B10930EA9CDF805
:1090F00038808DF83E40ADF83C4011943DF05CFF67
:10910000584A6D496A486D4D7CF06AF86C4B6D4861
:1091100010930EA9CDF838808DF83E40ADF83C4054
:10912000119403F089FC4F4A674966487CF058F86F
:10913000664B674810930EA9CDF838808DF83E40F5
:10914000ADF83C40119403F077FC464A5E49604814
:109150007CF046F85F4B604810930EA9CDF838803C
:109160008DF83E40ADF83C40119403F065FC3D4A5B
:10917000554959487CF034F8584B594810930EA97A
:10918000CDF838808DF83E40ADF83C40119403F0A6
:1091900053FC344A4C4952487CF022F841F60A0309
:1091A0000EA92846CDF83880ADF83C30CDE9104402
:1091B0008DF83E703DF000FF284606F1780340F838
:1091C000183B2422214684F081F8464BEB611C2396
:1091D000C5E90F4485F83D30434BEB62052385F824
:1091E0004130424B2B63132385F8423085F84440CD
:1091F00028463F4D1B4A3F497BF0F2FF41F60F03E3
:109200000EA92846CDF83880ADF83C30CDE91044A1
:109210008DF83E703DF0D0FE284606F18C0340F8F4
:10922000183B0EA942F61923ADF83C30CDF8388032
:10923000CDE910448DF83E7003F0FEFB28462E4D1C
:10924000084A2E497BF0CCFF2D4BCDF838805BE0EF
:10925000A0610B00B03E0120C82C0B006460002010
:10926000B0610B000060002069ED0200084501209C
:10927000F177050080EE3600C8670120490A070033
:10928000E4670120FC67012000F00240080611009D
:109290002F70040010680120D13C07001C680120D9
:1092A0002868012048680120531909004C680120F2
:1092B000086B012092030D00334D0700906B0120D5
:1092C000A3030D00506801205DCA0200B3030D0026
:1092D000486C012081030D00A06E012070030D0079
:1092E000A86801202C050D00142B0B001A2B0B0075
:1092F000D86B0120314D0700206B0120354D070050
:10930000B9310C00E07100200EA9284610938DF8A9
:109310003E40ADF83C4011943DF04EFE284606F12B
:10932000A00340F8183B0EA9BA4B1093CDF8388033
:109330008DF83E40ADF83C40119403F07DFBB64AF9
:10934000B64928467BF04CFF234622462146B448C6
:1093500000946BF039FCB348B34D68F001FBAE4AA2
:10936000B249B0487BF03CFFB148AB4AB149046018
:109370007BF036FFB048A84AAE4904607BF030FF6E
:10938000AE4B2B612846AE4BEB6006F1B40340F8C0
:10939000143B6D6047F2A802214683F097FF4622F6
:1093A0002146A84883F092FF9B4AA74928467BF0B4
:1093B00017FFA648984AA6498460C0E900007BF0E0
:1093C0000FFFA448A44D944AA449C463C0E90144D2
:1093D000C0E90344C0E90544C0E90744C0E90944C1
:1093E000C0E90B44C0E90D447BF0FAFE9C4B2B61B5
:1093F00028469C4BEB6006F1CC0340F8143B6D60B3
:109400004FF4FB52214683F061FF1022214696481B
:1094100083F05CFF804A95492846954D7BF0E0FE3D
:10942000944B2B612846944BEB6006F1E40340F823
:10943000143B6D602022214683F048FF764A8F4915
:109440006C6328468E4D7BF0CBFE8E4B2B612846FD
:109450008D4BEB6006F1FC0340F8183B6D604FF458
:10946000F062214683F032FF6B4A8849C5F898477D
:1094700028467BF0B5FE86482146102220F8024B94
:1094800083F024FF5C206EF029FB054607F07EF98F
:109490002B46804A43F8382BC5E90E3306F58A730C
:1094A0006B637D4B2C64C5E912344FF400734FF0AD
:1094B0000208A5F85830794B6D6485F850806C65CA
:1094C00085F85A806F62CC201D606EF007FB054660
:1094D00007F05CF92B46724A43F8382BC5E90E3386
:1094E00006F594736B636F4B2C6421467422C5E9B7
:1094F00012346D64A5F8504085F8524005F15400CF
:1095000083F0E4FE684BC5F8C840C5F824805820B5
:109510001D606EF0E3FA054607F038F92B46634A02
:1095200043F8382BC5E90E33614B2C64C5E912347E
:1095300003236B6206F59E765E4B6E636D642C654D
:10954000A5F8544085F856406C201D606EF0C6FAB0
:10955000054607F01BF92B46574A43F8382BC5E957
:109560000E33564B6B63564B564E574A574831781D
:109570002C64C5E9123405F15C03C5E915340423F4
:109580006B62534B6D641D6033881380514A2C65A8
:109590001380514A85F85C401380504A84601380E0
:1095A0004F4A13804F4B727859709A701C701A4A48
:1095B0004D49C0E900447BF013FE4C48164A4C4923
:1095C00084607BF00DFE4B48134A4B4984607BF06E
:1095D00007FE4A48104A4A498460C0E900447BF0CB
:1095E000FFFD48480C4A48498460C0E900447BF0CC
:1095F000F7FD4648084A44498460C0E900447BF0CE
:10960000EFFD4348044A43498460C0E900447BF0CD
:10961000E7FD81E0C9310C0000600020374D0700F4
:10962000F8B20020F044012010B4002053190900C2
:109630003C4701207DF705003847012015640200F2
:1096400007650200CC240120F1D7030084440120E7
:10965000D13C0700548500205C91002003490300A1
:109660004364020001650200D0B0002075C303000E
:109670002091002039640200036502004BC30300FF
:10968000808900202F640200056502001DC30300CD
:109690006E890020B4640B00E90103007C7B01208B
:1096A00088C60B00D98E0400C07B0120D0AD0B0012
:1096B000A1FA0300C47B0120BCE10C0034E20C00E1
:1096C00091A80800CB7E0120AC7B0120A03E0120A8
:1096D000CC7B0120AF7B0120A07B0120A27B01205D
:1096E000A47B0120BC7B012025680200FC770020C0
:1096F0007D680200387800207D680200A8440120BF
:10970000C9FD0800B4440120B5180400C844012074
:10971000D4440120B5180400344B3025013D1C739E
:1097200003F10E03FAD13248324A33498560C0E969
:1097300000557BF055FD31482E4A3149057200F144
:109740000803C0E900357BF04BFD2E482E4C294A1A
:109750002E498560C0E900557BF042FD01271422A7
:109760002946C4E90055A56004F10C0083F0AEFD64
:10977000204A2749274884F85070C4E90855C4E9AD
:109780000A55C4E90C55C4E90E55C4E91055C4E99D
:1097900012557BF025FD2048164A204905607BF0D4
:1097A0001FFD1F4B1F481D705D709D7035707570DB
:1097B0001DF0F4FC0F4A1C491A487BF011FD1B48B0
:1097C0001DF0ECFC0B4A184918487BF009FD0322F8
:1097D000294638466CF0F6FC154B186080BB154BDB
:1097E000154A16480C214AF071FB00BF007C01208D
:1097F000A07E012000600020C9FD0800AC7E012091
:10980000B15B0A00EC880020048900204786020032
:10981000B39A040034400120C47E01207DF7050086
:10982000C87E0120C8730020351003009C740020FE
:109830006C7500202E2B0B00382B0B00782B0B00A7
:109840008F4A9049904C914F18467BF0C9FC904B41
:10985000904A9D60C3E900258F4ADA608F4B904A99
:109860009D60C3E900258F4ADA608F498F4B90488D
:10987000C3E90252C3E900158E4B8F4A1A608F4A22
:109880005A608F4A9A608F4ADA608F4B8F4A9D6088
:10989000C3E900258E4ADA608E4B8F4A9D60C3E98A
:1098A00000258E4ADA608E4B8E4A8F49C3E9002527
:1098B0008E4A9A608E4ADA608E4B8F4A9D60C3E969
:1098C00000258E4ADA608E4A11608E498560C2E9B1
:1098D00001158D49D1608D4A8D4911608D495160C6
:1098E0008D4991608D49D160C0E90035644A8C4949
:1098F000C0F8EC5080F8F0507BF072FC89488A4B3D
:1099000003610523037104F14C0300264FF0400866
:10991000436104F15803C0E90635594A8349057388
:109920008560046080F821808562C6627BF058FC07
:109930007F48804B03612223037104F164030360B9
:1099400004F1B003436104F1BC03836142F210737C
:109950004B4A79490573856080F81C80076206636D
:10996000838680F8368087634662C6628662C563F6
:109970007BF036FC7148724B03610423037104F1E0
:10998000C803036004F588733D4A6E49057385601A
:1099900043617BF025FC6C486C4B03610E23037123
:1099A00004F58E73036004F5B473436104F5BA7370
:1099B0008361422380F82830654B314A654905733D
:1099C0008560C762C3610362436205637BF008FC84
:1099D0006148624B03611C23037104F5C07303608B
:1099E00004F5E4735E4E264A5E490573C0E9053509
:1099F00085607BF0F5FB5C4902A805F055FD30461B
:109A000005F046FC06F13003C6E90A3502AA0EA8A5
:109A1000564986F8305005F065FC55490EA87CF093
:109A2000B7FA014608A87CF0A9F808A906F12800B1
:109A30007CF0C4F808A87BF0B7FF0EA87BF0B4FF59
:109A400005F07EFC02A87BF0AFFF0D4A4949304685
:109A50007BF0C6FB484B83F8E45083F8E850474B53
:109A60004FF47A729A6004F5EA721A6004F5FE7493
:109A70004FF47F425D601C619A8214B0BDE8F081B2
:109A800000600020A1190900182E0B00408A012057
:109A900044800120B92A0900A42B0B005480012026
:109AA0009D2A0900AD2B0B007F2A0900348001207C
:109AB000648001201480012031300900116502000A
:109AC0000F650200F1B30B00E47F01200D300900A7
:109AD000B12B0B00F47F0120E52F0900B42B0B0004
:109AE00024800120C12F0900952F09002B67020057
:109AF000B92B0B0004800120BD620200C02B0B00BB
:109B0000D47F01206B2A0900C52B0B00C47F0120E4
:109B10005F2F0900592A090025670200C82B0B0096
:109B20008DBB0300D4720020CE2B0B00C9070300AD
:109B300004730020D52B0B0007080300447300209A
:109B4000DC2B0B00050803006C730020E32B0B00DB
:109B5000CDCCCC3D03080300A4730020EB2B0B00FD
:109B6000847200200108030073720B00F42B0B00B9
:109B7000FF2B0B001DF80200F4700020886A002003
:109B800007B503688DF807105B6801220DF1070126
:109B9000984703B05DF804FBA0F1100000F032B963
:109BA000407DFF2801D069F0A9BF704710B5437D03
:109BB000FF2B0CD0074A4FF4567000FB032001F036
:109BC00011FC044608B96EF0D7FB204610BD0020FA
:109BD000FCE700BFF88601202DE9F74F437DFF2BFE
:109BE00006460F4614462FD015464FF4567A4FF6C8
:109BF000FE7B15B3707D69F0BFFFF0B1737D134A32
:109C000001930AFB03294FF6FF7209F124095D4510
:109C100098BF2A4692B23946484601F047FB804633
:109C2000484601F0DFFB3F28019B02D9184669F046
:109C300065FFB5EB0805474403D1601B03B0BDE8E1
:109C4000F08F6EF099FBD4E70020F7E7E88601205B
:109C500008B5437DFF2B07D0044A4FF4567000FB34
:109C6000032001F0ADFB08BD0020FCE70C870120BC
:109C700073B5437DFF2B14D04FF456745C430A4EEA
:109C800004F1100001220DF10701304401F03EFA09
:109C90000546301969F086FF1DB19DF8070002B036
:109CA00070BD4FF0FF30FAE7E886012073B5457DBF
:109CB000FF2D03D14FF0FF3002B070BD254E4FF4A1
:109CC000567303FB0563186A18B14FF0FF316CF04F
:109CD0000BFC4FF4567202FB0562118B538B908A7A
:109CE00089B29BB2994236BFC3EB4002CA1A5218DE
:109CF00094B2E4B1A04209D281424FF456722CBF13
:109D00000B1A0B1802FB05629BB2538398421ED9B3
:109D10004FF4567101FB05610DF10700CA8A09690C
:109D2000C2F30E0202FB031183F0A8FA01244FF4E0
:109D3000567303FB0565286A20B100231A461946AD
:109D40006CF066FA002CB5D09DF80700B4E71B1A3A
:109D50009BB2DBE7E886012010B5194B5A7DFF2A3C
:109D60002CD11A7E52BB174C5A750121197694F8E2
:109D700050110B2908D84A1C84F8502101F14802DF
:109D8000114844F822000A461A75B4F81821B4F8AC
:109D90001A3161690A489B1A9BB20A4494F81C1153
:109DA00000F030F850B1B4F818311844636980B24B
:109DB000A4F81801588094F81C211A7110BD00BF36
:109DC000886A0020A46A0020045C0B0010B5407D66
:109DD000FF2807D069F0D0FE044608B96EF0CCFA2F
:109DE000204610BD0024FBE7034B9B68B3F5966F3C
:109DF00001D16AF033B87047E886012009B900B98B
:109E0000F2E770472DE9F047074692B098461546AD
:109E1000002A00F090804B4B93F81C6193F81D11C1
:109E200093F81EA1B21C83F81C214C1C8A1C83F8D9
:109E30001D2164F07F040AF1010241F08009E4B2BF
:109E400083F81E214222002101A883F03FFA002D51
:109E50006DD0B8F1410F73D940F20220ADF808007F
:109E600040F20940ADF80C0040F20120ADF81000BE
:109E700024208DF8160034480690731C0120DBB2B4
:109E80008DF806608DF80E608DF81C008DF8266048
:109E90002E48397D8DF81E30032640F60832089092
:109EA0008DF8273040F224608DF82B608DF831302A
:109EB00008260A230427ADF804208DF81410022286
:109EC0000521ADF824008DF82C6040F207508DF884
:109ED00034304FF4116640238DF807208DF812209E
:109EE0008DF81510ADF828008DF83320ADF8380046
:109EF0008DF83B208DF81F708DF82A90ADF82E60FC
:109F00008DF830708DF83AA08DF83C3007238DF82D
:109F10003F308DF8401044F2020342220DEB07015E
:109F200028468DF84140ADF8423083F0A7F9422031
:109F300012B0BDE8F087924614469146164681E776
:109F40000020F5E7A46A0020200105242402020570
:109F50007FB5204B204A03F1100614461868596853
:109F6000154603C50833B3422A46F7D11B4A1B885E
:109F7000106851682B8001AB03C3127A1A7004AACF
:109F800012E90700164B03C3194603F5887001F860
:109F90000829144AC4F818214FF48072A4F81C212F
:109FA0000122616184F81E210021202283F08EF9B4
:109FB00040F20943C4F820310B4BC4F824310B4B59
:109FC000C4F828310023C4F82C31042384F850311C
:109FD00004B070BD1A5C0B00A46A00202C5C0B005E
:109FE000BC6A002009000001135C0B002C050D0069
:109FF000F0B50546002004462B5D2E19002B68D0D5
:10A0000003F14002D2B2012A3DD9F42B3BD81A0603
:10A010001BD40122A3F55846B6F5006F33D3B3F530
:10A02000803F14444FD31E2853DCA3F580334200F5
:10A030009E0A0A44C3F30903A6F52056A3F510535C
:10A0400021F8106002305380D6E703F0E002C02A06
:10A050001BD103F01F03022206F1010C16441CF869
:10A06000017B07F0C00EBEF1800F0CD107F03F0757
:10A07000664547EA8313F2D1022A16D1A3F180067E
:10A08000B6F5F06FC6D30134B6E703F0F002E02A6C
:10A0900003D103F00F030322DEE703F0F802F02AF6
:10A0A000F1D103F007030422D6E7032A04D1A3F574
:10A0B0000066B6F5784FE5E7A3F58032B2F5801F6C
:10A0C000E1D20422A6E7202803D021F81030013085
:10A0D00092E7F0BD0B6802490B610121184700BFF0
:10A0E000588101202DE9F041174C184F804600257A
:10A0F00018262279EBB2511D994212DA382200213A
:10A10000134883F0E3F81022FF2104F1090083F0E3
:10A11000DDF804F119001222BDE8F041FF2183F0BF
:10A12000D5B89A4207D9226806FB032333B9BDE8A4
:10A13000F041FEF739BE9B1A06FB03735B6840468D
:10A1400098470135D5E700BF386C0020405C0B0014
:10A150003D6C0020F8B5124C266C00F07F07C50955
:10A160004FF0FF3130466CF0BFF904EB47032B444E
:10A1700025339A79C2F38004520708D59A7912F0F0
:10A18000010103BF9A7961F382029A7100240023CE
:10A190001A46194630466CF03BF82046F8BD00BF21
:10A1A000386C0020F8B5194A00F07F0302EB430336
:10A1B00003EBD01000F1250490F82B5015F00105A9
:10A1C00021D190F82B305907C3F3800717D4166CB0
:10A1D0004FF0FF3130466CF087F9A57915F0010595
:10A1E0000FD1A3795B0704D4A37943F00403A371CF
:10A1F000012500231A46194630466CF009F8284616
:10A20000F8BD3D46F5E70025F9E700BF386C0020B2
:10A2100070B4827802F07F03082B07D9524B1B6879
:10A22000DB0700D500BE002070BC70474F49C478E2
:10A23000CD79818804F00304022CC1F30A010BD00C
:10A24000032C45D0012C11D1022D40F2FF3408BF60
:10A250004FF48064A1420DE0022D0AD1B1F5007FD8
:10A2600009D0414B1B68DA0700D500BE70BCFEF771
:10A27000A3BD4029F5D83E4E5C0004EBD21406EB9A
:10A280000414D5092181C17801F0030101292FD0DF
:10A290000120384900FA03F405BB03F10C06B04075
:10A2A000C1F80403D1F8140503F594730443C1F80D
:10A2B000144541F823502F4BC3F8182542F48072FF
:10A2C000C3F80C25BFF36F8FBFF34F8F0120ABE7AF
:10A2D000022D0CBF4FF480644024BBE7023398404A
:10A2E000C1F80403D1F810351C43C1F81045E2E76A
:10A2F000082B93D11F4BDDB9B6F8182112B180227B
:10A30000C3F81C250022C3F85021D3F8002312F40F
:10A31000001208BFC3F85421164B4FF44012C3F883
:10A320000423D3F8142542F48072C3F81425C9E736
:10A330000022C3F82C21B6F8082112B18022C3F8FC
:10A340001C250C4BD3F8002312F4001208BFC3F8ED
:10A350005421094AC3F80423D3F8102542F480722B
:10A36000C3F81025AEE700BFF0ED00E0386C002028
:10A37000906D0020007002400008200010B50B4BCB
:10A3800000F07F0203EB420303EBD0142534A379E2
:10A390009B0709D401F07AFAA37943F00203A37171
:10A3A000A37943F00103A37110BD00BF386C0020F6
:10A3B00010B5104B04460146187801F023F80E4BF7
:10A3C00004F07F0103EB410303EBD41090F82B3032
:10A3D0006FF3410380F82B3090F82B306FF30003BC
:10A3E00080F82B3090F82B306FF3820380F82B30FD
:10A3F00010BD00BF04600020386C00202DE9F84338
:10A40000DDE908890C4616461F460025AE4201DCF0
:10A4100001200EE06378052B04D1E37803F00303F9
:10A42000BB4208D00D4B186810F0010001D000BEEF
:10A430000020BDE8F8832046FFF7EAFE18B9BDE822
:10A44000F843FEF7B9BCA378DA0914BF89F80030E5
:10A4500088F80030237801351C44D7E7F0ED00E0A0
:10A460001FB5CDE902011149002308240193486C6E
:10A470008DF805403AB9134601A94FF0FF326BF051
:10A48000C7FE04B010BD6A4601A900936BF059FFE6
:10A49000009B002BF5D0064B4FF080525A6040BF16
:10A4A000BFF34F8FBFF36F8FEBE700BF386C002017
:10A4B00000ED00E02DE9FF414378484C023B0546A2
:10A4C000042B12D8DFE803F003291B227100637903
:10A4D0006FF300036371637900226FF341036371CB
:10A4E000A271637962F382036371606C002961D1A8
:10A4F0000B464FF0FF3229466BF08AFE2FE063795E
:10A50000D8072CD5637943F00403EDE76379DA07C4
:10A5100025D563796FF38203E6E763795B0715D589
:10A5200063796FF3820363710278606C0023CDE975
:10A5300001338DF80420052203938DF8052089B995
:10A540000B464FF0FF3201A96BF062FEDFF89480FA
:10A55000002618272279F3B2511D994214DA04B06B
:10A56000BDE8F0816A4601A900936BF0EAFE009B0A
:10A57000002BEBD01A4B4FF080525A6040BFBFF314
:10A580004F8FBFF36F8FE1E79A420AD9226807FB2A
:10A59000032323B15B6913B16968287898470136B2
:10A5A000D8E79B1A07FB0383F4E7237A0133DBB276
:10A5B00023729AE7002301AA294601936BF0C1FE9A
:10A5C000019B002BCBD0064B4FF080525A6040BF0E
:10A5D000BFF34F8FBFF36F8FC1E700BF386C002010
:10A5E00000ED00E0405C0B002DE9FF47474D0746BA
:10A5F00000F07F0005EB400606EBD7162536B47950
:10A6000014F001044FEAD71E4FEA400306D0FEF7CC
:10A61000D3FB0446204604B0BDE8F08796F806C098
:10A62000DFF800814CF0010C86F806C003EB0E0C3D
:10A630004FEA0C1908EB0C1C46469CF80BA0BAF12B
:10A64000000F17D0324A1168C90700D500BE2B444D
:10A65000734493F82B106FF3000183F82B1093F8D9
:10A660002B106FF3820183F82B101368DB07D1D511
:10A6700000BECFE748F80910ACF80420ACF806405B
:10A6800008BB02BB234BD3F88034C3F3C0139E45F1
:10A6900019D0214800F02EFF204B59680394C1F3D4
:10A6A000080100394FF4E06318BF012101A8CDE98A
:10A6B0000144ADF804308DF808708DF80940FFF7BB
:10A6C000F9FE0124A6E70125BEF1000F1AD106EB21
:10A6D0004012D57218B9124800F00CFFF1E7BFF331
:10A6E0006F8FBFF34F8F937A03F0FF0443B1D37A98
:10A6F00003F0FF05002B8DD082F80AE001F062F82C
:10A700002C4687E701F0E8F8FAE700BF386C002034
:10A71000F0ED00E0007002405070024000ED00E0FB
:10A720004C700240906D00202DE9F04FB54B1B7826
:10A73000FF2B93B0834600F029844FF47A720023F4
:10A7400080024FEA9B5181F0A3FF012838BF01200E
:10A750000390AD4CBBF1FF3F606C26461BD0039BC2
:10A76000BBF1000F14BF1A46002207A96BF042FE8E
:10A77000002800F00B849DF81D30013B072B00F2F0
:10A78000B283DFE813F00A001C00B00317042604AC
:10A790002B008D0332045A46E7E79DF81C00FFF7B3
:10A7A000A1FC9A481422002182F090FD9DF82030EF
:10A7B000E371606C6BF02EFF0028CAD1E6E39DF8D0
:10A7C0001C00FFF78FFC91481422002182F07EFDCF
:10A7D0008F4B002BEDD0AFF30080EAE7237A013BEB
:10A7E000DBB22372227A02F0FF03002AE1D1627900
:10A7F000DFF818829DF81C50C8F8103042F00102B2
:10A80000627194F82B2063F3000284F82B2094F8F3
:10A810002B2063F3820284F82B2094F82C2063F31E
:10A82000000284F82C2094F82C2063F382029DF817
:10A83000203084F82C2003F06002602A06D1754B8A
:10A840001B68DD0740F1DF8200BEDCE2402A0AD14E
:10A85000714BC8F8103008AA0121284669F090FA17
:10A860000028A6D1CFE203F01F03012B00F03E82A7
:10A87000022B00F08882002BE1D1202A20D19DF804
:10A8800024300F2B00F2BF821E442379717A994243
:10A890000CD2236801EB410113EBC10100F0B3823C
:10A8A00008AA0C312846FFF715FCD9E75A1D8A4241
:10A8B000C0F2A982594AC91A182303FB0121EFE704
:10A8C000002ABCD19DF82130092BB8D801A252F83A
:10A8D00023F000BFD7AC0200C5AC02003FA80200C5
:10A8E000B1AC02003FA80200FDA8020063AB020069
:10A8F0003FA8020031A9020045A90200DDE90801D4
:10A90000474BC8E90001D3F80014D3F80004002233
:10A910000143C8E90222C3F80014C3F858214FF4D8
:10A920008002C3F80423637943F00203637140E7B4
:10A93000A3798DF8383001230EAA08A9284668F0BB
:10A9400007FC36E79DF822300193019AA3799A42D9
:10A9500000F08A80A379002B42D0324B8022C3F8CA
:10A960008420BFF34F8FBFF36F8F0127DFF8B080D4
:10A97000DFF8C0A0B94607F10C03BA1C09FA02F2CD
:10A9800009FA03F31343C8F80833BB0003F180430B
:10A9900003F51C33002159600AEB4710996220220D
:10A9A000013782F093FC082F4FF00001E3D11E4BDA
:10A9B000C8F808332022C8F81C151C48C8F8241011
:10A9C000C8F8481082F082FCC8F81495C8F81095B1
:10A9D000144B80225A60E7792846FFF783FBE77122
:10A9E000019B002B00F0B780114B5A6912B15378CC
:10A9F000022B21D0074B1B68DA077FF520AF00BE82
:10AA00001DE700BF04600020386C00205881012041
:10AA100000000000F0ED00E0813D0900405C0B000B
:10AA20000070024000E100E000083000906E00205D
:10AA3000A46A0020906D0020D379C3F38011C3F382
:10AA400040131B0143EA4113617921F030010B43AC
:10AA500063715388D31802F109010293029B8B4260
:10AA600009D8B74B002B73D1019BA37108A92846C5
:10AA700068F02AFB9DE64B780B2B03BF0B7891F80F
:10AA80000390C9184FF001094B78042BB2D1029BF7
:10AA90005A1A92B24FF0000A37795FFA8AF87B1D92
:10AAA0009845A7DC47452ED93768182303FB08775C
:10AAB000002F9FD0BB682846CDE90412984708288C
:10AAC000DDE9041241D982423FD3B9F1010F0AD125
:10AAD000BB689C4A934208BF4FF002099A4A9342CE
:10AAE00008BF4FF002090022D3B2994512D8974A05
:10AAF000084488421AD8954B1B79053398453FF78F
:10AB000079AF0146AAE7924BA8EB0707182000FB94
:10AB10000737CFE78F783B4456FA83F301325F7AE9
:10AB2000FF2F7FF467AF83F80980DDE74B78052BB3
:10AB300008D18F7807F07F0302EB430303EBD713B1
:10AB400083F819800B781944D3E70AF1010AA3E7C7
:10AB5000AFF3008088E77F4B002B85D0AFF30080F8
:10AB600082E7BDF82200030A5A1EC0B20E2A00F284
:10AB70004A81DFE812F00F001A002B00480148015B
:10AB800091001A0048014801480148014801480164
:10AB900048011600704A122308A9284668F0D8FA1E
:10ABA0005EE66E4A32F80239F6E7022B06D16A4BAE
:10ABB0005A69002A3FF443AE5388EDE7684B002BF7
:10ABC00000F02181AFF300800246F2E7624E60B1EF
:10ABD000032819D096F85031834240F2148148304E
:10ABE00006F5AA7156F8200053E0D6F82031A6F8F1
:10ABF000543101200130430043F44072A6F8522141
:10AC000003F0FE03574AC7E7D6F82C71002F3DD159
:10AC10000AA869F025F90DF1280C0346B6463A4614
:10AC2000D1B28B420EF1040E2DD94F4F0DF13809E0
:10AC300007F1100A38687968C846A8E803000837A1
:10AC40005745C146F6D11CF8018B474F08F00F015C
:10AC500012A801440DF1380A11F8101CAEF8521177
:10AC600079683868D146A9E80300404908378F421F
:10AC7000CA46F5D112A901EB1818013218F8101CB8
:10AC8000AEF85011CCE75800C0B2B3E706F5AA7190
:10AC90003846FFF7ADF9F7E7354B002B00F0B380EE
:10ACA000AFF300800246002800F0AD80037873E720
:10ACB000BDF82230012B40F0A680637943F00803F1
:10ACC0006371D3E6BDF82230012B40F09C8063799C
:10ACD0006FF3C303F4E76379C3F340129B0803F0F7
:10ACE00002031343ADF83830022325E69DF82430E3
:10ACF0000F2B00F288801E442379717A994239D251
:10AD0000236801EB410113EBC1017CD008AA0C318F
:10AD10002846FFF7DFF900287FF44BAD9DF820307F
:10AD200013F060036FD19DF82120A2F10A010129DF
:10AD300069D80A2AC8F810307FF498AEF9E500BF48
:10AD400000000000D53C090035350900386C0020B2
:10AD5000405C0B0000000000A46A002086040D0087
:10AD600000000000F66B00205C390D006C390D000E
:10AD7000000000005A1D8A4245DBA24AC91A182366
:10AD800003FB0121C2E79DF8240000F07F0CBCF119
:10AD9000080F3FF654AD06EB4C0707EBD01794F8BD
:10ADA00004E07F7E77454FEAD0114FEA4C0A16D275
:10ADB000236807EB470703EBC70712BB9DF8212069
:10ADC00002F0FD0EBEF1010F24D0002A7FF437AD52
:10ADD0005644314491F82B30C3F3400382E70EF11F
:10ADE0000509B945C0F20981864BA7EB0E074FF064
:10ADF000180E0EFB0737002AE0D008AA07F10C0155
:10AE000050E5002FF9D1002000F040FD802000F037
:10AE10003DFDCEE4BDF822E0BEF1000F2BD1012AAA
:10AE20003BD106EB0A020A4425329279930722D5D8
:10AE300010F0770F11D0744A40F4807EC2F80C05F0
:10AE4000C2F80CE5C2F8180519B90CF5947C42F863
:10AE50002C10BFF36F8FBFF34F8F5644314491F8DE
:10AE60002B306FF3410381F82B3091F82B306FF3C7
:10AE7000000381F82B30002F3FF49BAC08AA07F1A8
:10AE80000C012846FFF726F90023C8F8103094F883
:10AE90002C30DE073FF58DACE8E5FFF76FFAEAE707
:10AEA0009DF8201001F07F0706EB470606EBD11650
:10AEB000CA0996F82B006FF3000086F82B0096F86D
:10AEC0002B006FF3820086F82B00002F4FD14F4DDF
:10AED0009DF81C602B78DDF82480B2EBD31F12D0D4
:10AEE000B8F1000F06D04A4B1B68DB077FF561AC59
:10AEF00000BE5EE42B69002B3FF45BAC2A460321C5
:10AF00003046984755E495F90030002B07DBA868D8
:10AF100000283FF44EAC3F49424682F0AFF9AA68A0
:10AF2000EB8942444344AA60EA889BB29A42EB818F
:10AF300002D0B8F13F0F16D82B696BB995F90030E4
:10AF40000022002B1146B4BF38468020FFF74CFB8F
:10AF500000287FF42EACC6E72C4A022130469847E1
:10AF60000028EBD150E7304668F0C6F8F0E7737E72
:10AF7000227993420DD2226803EB430312EBC30301
:10AF80000FD1234B1B68D80700D500BE13B0BDE816
:10AF9000F08F501D9842F4DB1A489B1A182202FBCE
:10AFA00003031D699DF82120099B9DF81C00A847FB
:10AFB000FFF7FFBB6379D9077FF5FBAB164B002B7F
:10AFC0003FF4F7AB6079C0F3C000AFF30080FFF748
:10AFD000F0BB6379DA077FF5ECAB104B002B3FF445
:10AFE000E8ABAFF30080FFF7E4BB089B002B3FF416
:10AFF000E0AB09989847FFF7DCBB002A7FF403AF6A
:10B000001746DBE6405C0B000070024058810120CF
:10B01000F0ED00E06C810120000000000000000065
:10B020002DE9F743DFF8D88098F80030FF2B06466B
:10B03000474648D1DFF8CC903822002109F10500BD
:10B0400082F044F909F1480101206BF065F94D46A1
:10B05000C9F8400040B9274B1B6813F0010F46D1D7
:10B06000002003B0BDE8F08300230093D8F8082047
:10B07000B8F80610B8F8040008F110036BF08CF86B
:10B08000D8F80C1004466BF0DDFAC9F844402CB92E
:10B09000184B1B68DB07E3D500BEE1E7164B23B175
:10B0A000281DAFF30080C9F80000DFF85C90002491
:10B0B0004FF018082879E3B2421D934205DD3E7037
:10B0C0000E4B80225A600120CBE7984208D92868AD
:10B0D00008FB030038B9074A126812F0010FBEE7F7
:10B0E0001B1A08FB0390036898470134E2E700BE8F
:10B0F000B7E700BFF0ED00E00000000000E100E075
:10B1000004600020386C0020405C0B002DE9F04703
:10B11000064600698846914618B14FF0FF316BF042
:10B12000E3F933897489B7889BB2A4B2A34236BFCE
:10B13000C4EB47051D1BED18ADB2F5B1AF4206D209
:10B14000BB422CBFDC1BDC19A4B274813D464D45CB
:10B1500028BF4D46A74229D9F2883168A7EB0409D8
:10B160001FFA89F9C2F30E0A4D4552460AFB041133
:10B170001FD86A43404682F081F87389B28899B239
:10B1800015FA83F39BB299424FEA420201D89342E7
:10B1900001DB9B1A9BB23069738120B100231A46F0
:10B1A00019466BF035F82846BDE8F087E41BA4B2D9
:10B1B000D0E719FB0AF91FFA89F94A46404682F09E
:10B1C0005DF8EA1B224412FB0AF2316892B208EBE6
:10B1D0000900D0E7F8B50446C0680F4616461D467C
:10B1E00018B14FF0FF316BF07FF9206918B14FF0C3
:10B1F000FF316BF079F9ED03E0682760002345F03B
:10B2000001056381A680E580238118B11A4619469D
:10B210006AF0FEFF206920B100231A4619466AF041
:10B22000F7FF0120F8BD38B50446C0680D4618B1D7
:10B230004FF0FF316BF058F9206918B14FF0FF3132
:10B240006BF052F9E379E06865F3C713E37120B15D
:10B2500000231A4619466AF0DBFF206920B100235B
:10B260001A4619466AF0D4FF012038BD10B50446CD
:10B27000C06818B14FF0FF316BF036F9206918B192
:10B280004FF0FF316BF030F9E068002363812381D8
:10B2900018B11A4619466AF0BBFF206920B1002395
:10B2A0001A4619466AF0B4FF012010BD2DE9F84F87
:10B2B00007468846164642B3C06818B14FF0FF31C2
:10B2C0006BF012F9FA793D897B89B7F80490D209BD
:10B2D000ADB29BB21CD19D4239BFC3EB4904641986
:10B2E000EB1A9CB238BFA4B2A14586BFA9EB0404F7
:10B2F000A4B20024A64228BF264656BBF86820B157
:10B3000000231A4619466AF083FF3046BDE8F88FDD
:10B31000F9884E45C1F30E0106D3A6EB090601FBE1
:10B3200006881D464E46E8E79D424FEA490136BF72
:10B33000CA1AEA1A521992B232448A4209DB09EB5C
:10B340000305AD1BADB2AB4201D8A94201DC6D1AB9
:10B35000ADB22C46A1451DD9FA883868A9EB040A7C
:10B360001FFA8AFAC2F30E0BB2455A460BFB0400D1
:10B3700014D37243414681F081FF7319BA889BB29E
:10B38000AB424FEA420201D3934201DB9B1A9BB2CC
:10B390003B81B3E7A4EB0904A4B2DBE71AFB0BFA89
:10B3A0001FFA8AFA5246414681F068FFA6EB09036C
:10B3B000234413FB0BF2386892B208EB0A01DAE778
:10B3C0008288038940899BB280B2834236BFC0EB3A
:10B3D0004200181AC01880B2824286BF101A80B28A
:10B3E000002070470389428981889BB292B29342C0
:10B3F00036BFC2EB41029B1A9B1898B2884228BF05
:10B400000846704770B501F07F05082D2A4B2B4C7C
:10B410004FEAD11123D0012202FA05F0C043A1B9AD
:10B4200005F10C06B240C3F80823D3F814251040E8
:10B43000C3F8140501EB450104EB01110023CB72A5
:10B44000BFF36F8FBFF34F8F70BDAE1CB240C3F818
:10B450000823D3F810251040C3F81005EAE704EBE1
:10B4600001120020A2F80801D1B94FF48012C3F8EC
:10B470000823D3F8142522F48072C3F81425C3F8E6
:10B4800050110D4BB4F808010022C3F81C25B4F884
:10B490001821C24204BF4FF40012C3F80823C9E7C1
:10B4A0004FF40062C3F80823D3F8102522F4807209
:10B4B000C3F81025E5E700BF00700240906D002042
:10B4C00001230360BFF36F8FBFF34F8F074B984289
:10B4D00002D0043B984207D1BFF35B8F044B00229C
:10B4E00083F82021BFF35B8F704700BF507002408C
:10B4F000906D002010B40D4BBFF35B8F01464FF0F1
:10B500000104D3E84F2FC3E84C4FBCF1000FF8D132
:10B51000BFF35B8F12F0FF0F05D005485DF8044BB9
:10B520000122FEF79DBF5DF8044BC9E7B06E002015
:10B53000F5B4020043F2040307B51A68094B9A42B6
:10B540004FF000000AD18DF807000DF10700FCF75D
:10B550002FF89DF80700003818BF012003B05DF8F0
:10B5600004FB00BFDBE5B15107B5FFF7E3FF58B1BE
:10B57000002301A80193FDF702FC0198003818BFD1
:10B58000012003B05DF804FB4FF08043D3F80C2496
:10B59000D3F80C0410F4803018BF02F00100F0E77B
:10B5A00001281FB5044600F0B980022853D00028B6
:10B5B00042D1774BD3F80025002A3DD14FF48002C9
:10B5C000C3F808234FF40062C3F80024BFF36F8F61
:10B5D000BFF34F8F6F4B1B68082B10D16E4B1B684E
:10B5E000032B0CD86D4AD35C4BB16D4B6D4A186878
:10B5F000032118BB49F27530186011601860FDF71F
:10B60000C4FB48B1664B684A1868C021C0B949F20A
:10B6100075301860116018605D4B0124C3F8004557
:10B62000BFF36F8FBFF34F8FFFF79EFF20B9FFF778
:10B6300081FF38B1FDF7A7FB04B010BD1160DEE754
:10B640001160E9E7594B18601B680193019B4FF0AB
:10B6500080431C60F0E74E4CD4F804351BB1FFF773
:10B6600083FF0028E8D1D4F800341B05FBD54FF444
:10B670000063C4F80034BFF36F8FBFF34F8FFDF743
:10B6800084FB48B1464B484A1868002840D149F22B
:10B6900075311960106019603E4B1B68082B0FD183
:10B6A0003D4B1B68032B0BD83C4AD35C43B13C4B4E
:10B6B0003C4A186878BB49F275311960106019600E
:10B6C000FDF763FB48B13A4B40F2E3721A60402247
:10B6D0005A60BFF36F8FBFF34F8F2D4C35488022D8
:10B6E0000121C4F81C25C4F804133349C1F884218E
:10B6F0000078FF2800D04A60FFF736FF0028FBD013
:10B700000123C4F80435BFF36F8FBFF34F8F93E766
:10B7100000231360C0E700231360D1E71C4BD3F86C
:10B720000025002A88D00022C3F80425BFF36F8FBC
:10B73000BFF34F8F20498020C1F88400BFF34F8FA3
:10B74000BFF36F8FD3F80013C3F80813C3F80025B5
:10B75000BFF36F8FBFF34F8FFFF7ECFEA0B1FDF784
:10B7600010FB164B5968C1F3080100230039CDE9DD
:10B770000133039318BF01214FF4007301A8ADF802
:10B780000430FEF797FE57E70D4B1C60E9E700BF5A
:10B79000007002403001001034010010D05C0B003A
:10B7A00000EC064014ED064014EC06400001004099
:10B7B000007802400460002000E100E000ED00E0BD
:10B7C00004000040F0B42B4ABFF35B8F02F5907386
:10B7D0004FF00104D3E84F1FC3E8454F002DF9D1C6
:10B7E000BFF35B8F11F0FF0F14460BD0224B5A684A
:10B7F000C2F30802003A0146F0BC204818BF0122FB
:10B80000FEF72EBE08281E4919D1D1F8C034D8033E
:10B8100008D5BFF35B8F002384F82031BFF35B8F23
:10B82000F0BC704792F80B010028F2D0D2F800214A
:10B830001448C1F8A027C1F8A437F0BC40E602EBD9
:10B84000401500F59473460151F82340EF88AB880A
:10B85000DB1B9BB2A4B2A34228BF234694591422F7
:10B8600002FB0011C1F80047C1F80437064B03EB97
:10B870008000E2E7906D002000ED00E0D5B8020006
:10B8800000700240487002402870024010F07F01B2
:10B8900008B507D10D4B01225A65BFF36F8FBFF377
:10B8A0004F8F08BD0829F8D0084B40F48072C3F8C8
:10B8B0001825C309F1D1064A02EB4112907A0028FB
:10B8C000EBD093720846FFF77DFFE6E70070024079
:10B8D000906D0020C0B275E70C4B03EB4013D98A82
:10B8E0009A8A521A198B92B28A4228BF0A4619695B
:10B8F0001423434303F1804303F51C33C3F80016BC
:10B90000C3F80426024B03EB8000F3E5906D0020A2
:10B91000047002402DE9F04FC34BC44AD3F8001322
:10B92000002385B01C4601201D4621FA03F6F607C8
:10B930000BD552F8236046B100FA03F6344342F8BF
:10B940002350BFF36F8FBFF34F8F0133192BECD10F
:10B95000E7073BD5B44B0122C3F81425C3F81025E3
:10B9600000221546930003F1804303F51C33013296
:10B97000082A5D609D62F5D1AB4B5D629D64C3F8A2
:10B980005851D3F80024D3F800140A43C3F8002414
:10B99000D3F80023C3F80823A54AC3F80423A54B12
:10B9A0004FF492720021184681F090FC40220283ED
:10B9B00002814FF48073012101A8CDE9015503955F
:10B9C000ADF804308DF80850FEF774FD14F4006FE4
:10B9D000984D08D0944BD3F8A8369BB2A5F81631F1
:10B9E000012385F81C31A60204F4800736D58E4E5B
:10B9F000D6F8143513F4807308D01FB1D6F800348C
:10BA0000D80702D40820FFF7DDFE0123D6F8102561
:10BA1000D10540F15D8195F81C319BB1B5F8163127
:10BA200000229BB2CDE9012285F81C2103934FF43B
:10BA3000E0628823012101A8ADF80420ADF80830A8
:10BA4000FEF738FD0023CDE90133039301214FF4C4
:10BA5000407301A8ADF80430FEF72CFD002F37D05D
:10BA6000714BD3F8006440F201723240C3F80024F5
:10BA7000F2050DD50121C3F82C150023CDE90133C2
:10BA8000039301A84FF48063ADF80430FEF712FD74
:10BA900077050FD5644B0122C3F808259A65D3F8C2
:10BAA000002312F4001208BFC3F854214FF400120F
:10BAB000C3F80423B0050BD50023CDE9013303936C
:10BAC00001214FF4A06301A8ADF80430FEF7F2FCA9
:10BAD00021023BD5544BD3F880E4D3F88424D3F827
